:020000040800F2
:10000000801A002061010008FD340008FF34000858
:1000100003350008073500080B3500080000000014
:100020000000000000000000000000000F35000884
:1000300011350008000000007701000813350008A2
:100040007B0100087B0100087B0100087B010008A0
:100050007B0100087B0100087B0100085535000882
:10006000613500086D3500087B0100087B01000840
:100070007B0100087B0100087B0100087B01000870
:100080007B0100087B0100087B0100083F35000868
:100090007B0100087B0100087B0100087B01000850
:1000A00047350008493500087B0100087B0100083E
:1000B0007B0100087B0100087B0100087B01000830
:1000C0007B0100087B0100087B0100087B01000820
:1000D0007B0100087B0100087B0100082135000836
:1000E0007B0100087B0100087B0100087B01000800
:1000F000533500087B0100087B0100082B35000800
:10010000353500087B0100087B0100087B010008F1
:100110007B0100087B0100081F3500087B010008F7
:100120007B0100087B0100087B0100080000000043
:100130007B0100087B0100087B0100087B010008AF
:100140007B0100087B010008DFF810D004F00CFDF3
:1001500000480047F5410008AFF30080801A0020F6
:100160000648804706480047FEE7FEE7FEE7FEE751
:10017000FEE7FEE7FEE7FEE7FEE7FEE78702000890
:100180004901000830B50020002100230022A14CC5
:10019000246844F480349F4D2C6000BF9D4C24683B
:1001A000C4F340425B1C12B9B3F5005FF6D1994C21
:1001B0002468C4F340421AB9974C984D2C6030BD66
:1001C000944CE46944F08054924DEC61944C246862
:1001D00004F4C064B4F5806F05D1914C246844F4F4
:1001E000C0648F4D2C608F4C246824F003048D4D27
:1001F0002C602C46246844F003042C60854C646811
:10020000844D6C602C46646844F400546C602C4649
:10021000646844F4A0646C602C466468824D2C4091
:100220007C4D6C602C46246C24F003042C642C461A
:10023000606840F48030216C40F4003000BF7B4C9B
:1002400020432C4660602164246844F080742C6054
:1002500000BF704C246804F00074002CF9D06D4C81
:10026000646824F003046B4D6C602C46646844F0B1
:1002700003046C6000BF674C646804F00C040C2C31
:10028000F9D100BF9BE710B56948006840F47000E1
:10029000674908605F48406A40F004005D49486271
:1002A00008464068634908405A4948600846006863
:1002B00061490840574908600846006820F48020DA
:1002C0000860084640685D490840524948604FF45C
:1002D000E040C86240100863002048630864584842
:1002E00088600846C06940F08050C8610846C0690F
:1002F00020F08050C8614B48006840F090004949A8
:1003000008600846006800F4807020B10846006864
:1003100020F400700860FFF735FF4FF0006044499B
:100320008039086010BD70B5002100200023002432
:100330000022384D6D6805F00C01364D6D6AC5F32D
:10034000021231B104290AD008290CD00C294DD150
:100350000DE03C4D55F82250304E35604CE03A4DA2
:100360002E4E356048E0394D2C4E356044E0294D25
:100370006D68374E05EA0600264D6D6805F480333A
:10038000244D2D6C05F0020400F000651DB9022516
:1003900005EB904004E04FF4F875C5EB9045681C00
:1003A00073B91C4D2D6C05F0020525B1274D454351
:1003B0001A4E356012E0244D4543184E35600DE06D
:1003C000144D6D6805F4003525B1134D4543134EAA
:1003D000356003E01D4D4543104E3560022C04D1BD
:1003E0000E4D2D686D080D4E356005E0154D55F824
:1003F00022500A4E356000BF00BF064D6D68C5F340
:100400000315144E715D054D2D68CD40034E3560CA
:1004100070BD00000010024000093D0000000020F7
:100420000070004000200240FFFFC0F700002808D5
:1004300088ED00E000C0FFF8FFFFF6FEFFFF0007B9
:100440000080BF04C05900080024F40000127A00A4
:1004500000003C08B059000831490143314A11609D
:10046000704770B5002100230F22C47804B32D4CCF
:10047000246804F4E064C4F5E064210AC1F10403D3
:10048000CA40447804FA03F18478144021430901F6
:10049000254C0678A155047804F01F050124AC40D2
:1004A00005786D11AD0005F1E025C5F8004109E0C2
:1004B000047804F01F050124AC401C4D0678761129
:1004C00045F8264070BD1A4A0A400243154B1B1FCF
:1004D0001A60704739B1134A121D12680243114B5A
:1004E0001B1D1A6006E00F4A121D126882430D4B55
:1004F0001B1D1A607047042808D14FF0E0210969DC
:1005000041F004014FF0E022116107E04FF0E021DB
:10051000096921F004014FF0E022116170470000E9
:100520000000FA050CED00E000E400E080E100E0EE
:1005300080FFFF1F10B50446FA48844207D101210D
:10054000801401F0BCFB0021A01401F0B8FB10BD29
:1005500030B5024600200023F24C6034246844F099
:100560002804F04D60352C605068EF4C20400C782A
:1005700040EA042050609068EC4C2040D1E90154DE
:100580002C434D7844EA450420439060D06A20F41F
:1005900070000C7B641EE4B2234340EA0350D06237
:1005A00030BD002101704170416081600121017303
:1005B0007047002221B1836843F00103836003E0A8
:1005C000836823F001038360002200E0521CB2F52F
:1005D000FF7FFBD9704721B1826842F4807282604C
:1005E00003E0826822F480728260704710B50023B5
:1005F000CBB21AB144681C43446002E044689C4397
:10060000446010BD0021426D1AB9826842F00402B4
:100610008260002100E0491CB1F5FF7FFBD97047E3
:10062000014600208A6802F004020AB1012000E0BD
:1006300000204A6D02B10020704721B1826842F467
:10064000A002826003E0826822F4A0028260704708
:10065000014600208A6802F480020AB1012000E00D
:100660000020704710B50A4600210023416821F49C
:100670006041531E41EA4331416010BD21B14268DF
:1006800042F40062426003E0426822F40062426089
:100690007047F0B50446154600200022122904D107
:1006A000E06D20F007001843E065092911DDE068DE
:1006B000A1F10A0606EB4607072606FA07F2904361
:1006C000A1F10A0606EB460603FA06F21043E060C3
:1006D0000CE0206901EB4107072606FA07F2904378
:1006E00001EB410603FA06F210432061072D0FDAF1
:1006F000606B6E1E06EB86071F2606FA07F2904314
:100700006E1E06EB860601FA06F21043606322E0D5
:100710000D2D0FDA206BEE1F06EB86071F2606FA5B
:1007200007F29043EE1F06EB860601FA06F210432D
:10073000206310E0E06AA5F10D0606EB86071F2690
:1007400006FA07F29043A5F10D0606EB860601FABC
:1007500006F21043E062F0BD21B1826842F48012DB
:10076000826003E0826822F4801282607047014652
:10077000C86C80B2704721B1426842F48062426026
:1007800003E0426822F480624260704721B142680F
:1007900042F48052426003E0426822F48052426098
:1007A00070470A460021816821F4E04111438160CD
:1007B000704721B1826842F40042826003E082689F
:1007C00022F400428260704721B1826842F4021232
:1007D000826003E0826822F4021282607047014660
:1007E00000208A6802F400120AB1012000E0002013
:1007F0007047F0B504461546002000220026122955
:1008000005D1E06D20F007001843E06520E00929DC
:1008100011DDE068A1F10A0707EB470C072707FA8B
:100820000CF29043A1F10A0707EB470703FA07F21E
:100830001043E0600CE0206901EB410C072707FA48
:100840000CF2904301EB410703FA07F210432061D9
:10085000A06BC0F30156EF1C06F1010CA7EB0C07CF
:1008600007EB870C1F2707FA0CF29043EF1C06F1E9
:10087000010CA7EB0C0707EB870701FA07F21043FF
:10088000A063F0BD10B50A4600210023816B21F45E
:100890004011531E41EA0351816310BD08B5002386
:1008A00000930090009B0B440093009B1A6008BDCE
:1008B00008B5024600200090009201F12800009B3C
:1008C000184400900098006880B208BD0A460021D4
:1008D0004168174B19401143416070474162826281
:1008E00070470A460021416821F01F011143416011
:1008F0007047B0B10B490831096841F40001094A59
:100900000832116000BF0B49096841F40051094ADF
:10091000116000BF00BF1146096841F480111160E9
:100920001FE009E000080240FFFEF0FFFDF7F1FFC5
:10093000FFFD3FFF241800406649096821F40001CB
:10094000644A116000BF6449096821F40051624A99
:10095000116000BF00BF1146096821F480111160C9
:1009600000BF70470246002013680B400BB1012006
:1009700000E0002070477F228A430260704770B514
:1009800002460020002300240B125568CEB205EA6F
:10099000060415681D4015B10CB1012000E00020CF
:1009A00070BD00220A127F23934303607047024602
:1009B0000020CB7923B1D36D43F00803D36503E066
:1009C000D36D23F00803D365906D0B7813B140F419
:1009D000806001E020F480604B7813B140F4007037
:1009E00001E020F400708B7813B140F4807001E0D6
:1009F00020F480700B7913B140F0080001E020F082
:100A000008004B7913B140F0040001E020F004002D
:100A100020F003008B79184320F01000CB78012BD5
:100A200001D140F010009065704702460020936DA0
:100A30000B400BB1012000E0002070470A46002166
:100A4000816D12B141F0800101E021F080018165EA
:100A500070470A460021816D21F003011143816531
:100A60007047816D21F0100181657047816D41F003
:100A700010018165704770B505460C4665B90021C7
:100A80004FF4807000F025FF204600F031FF114840
:100A90000838FFF7E6FF0AE00121204600F019FFC1
:100AA000002000F025FF0B480838FFF7DFFF70BD7E
:100AB00070B5054600240121080200F08BFF0648AE
:100AC000046824F4D014012D01D144F4D014024858
:100AD000046070BD080802402418004010B50121D0
:100AE000480701F006F900214FF0005001F001F92C
:100AF00010BD10B500210022454B196840F6FE7369
:100B00009943D0E90034234384682343C46843EA0B
:100B1000040211433E4B196010BD00210160416089
:100B200081600221C160704730B13949096841F0E4
:100B30000101374A116005E03549096821F00101DA
:100B4000334A1160704730B13149096841F480512E
:100B50002F4A116005E02E49096821F480512C4A82
:100B60001160704740B12A49091D096841F001012F
:100B7000274A121D116007E02549091D096821F067
:100B80000101234A121D1160704740B12049091D1F
:100B9000096841F001011E4A121D116007E01C495D
:100BA000091D096821F00101194A121D11607047E1
:100BB00008B500220092164A12680092009A22F0AC
:100BC000C002009219B1009A0243009203E0009A19
:100BD00022F0C00200920E4B009A1A6008BD08B5C0
:100BE000002200920A4A009200F10802009B1A4477
:100BF0000092009A116008BD08B5002000900448DA
:100C0000009000982C3000900098006880B208BDD9
:100C10000074004001684FF6FE721140016000212F
:100C2000016041608160C1606749884208D16649BE
:100C30000839496841F00F01634A083A516059E0A8
:100C400061491431884208D15F490839496841F047
:100C5000F0015D4A083A51604CE05B492831884216
:100C600008D159490839496841F47061564A083A2F
:100C700051603FE054493C31884208D1524908391B
:100C8000496841F47041504A083A516032E04E4997
:100C90005031884208D14C490839496841F47021E3
:100CA000494A083A516025E047496431884208D1F1
:100CB00045490839496841F47001434A083A51608E
:100CC00018E041497831884208D13F4908394968DC
:100CD00041F070613C4A083A51600BE03A498C316E
:100CE000884207D138490839496841F07041364A8D
:100CF000083A5160704710B50022026847F6F07359
:100D00009A430C6A8B6823430C6923434C69234341
:100D10008C692343CC6923434C6A23438C6A234365
:100D20001A430260CB6843600B6883604B68C36002
:100D300010BD0021016041608160C16001614161BD
:100D40008161C161016241628162704721B10268C3
:100D500042F00102026004E002684FF6FE731A409E
:100D6000026070471AB103680B43036002E0036836
:100D70008B4303607047416070470146486880B20A
:100D8000704710B50246002000230B6803EA0204F6
:100D90000CB1012000E0002010BD4860704710B584
:100DA0000246002000230B6803EA02040CB1012074
:100DB00000E0002010BD4860704710B50BB1106115
:100DC00001E00024146110BD0800024000204A49DF
:100DD0000860091D0860091D0860091D08606FF0A2
:100DE00070404549143108607047002142498279BA
:100DF000002A3AD00A46126803689A430B461A60E2
:100E00000A1D126803689A430B1D1A600279114487
:100E10000A6803681A430A60374A0832126803688E
:100E20009A43354B08331A601A1D126803689A43B7
:100E3000314B0C331A604279102A0ED11A1F1268F6
:100E400003681A432C4B08331A601A1D1268036892
:100E50001A43294B0C331A600DE02749427911449B
:100E60000A6803681A430A6005E0027911440A68B7
:100E700003689A430A6070470021016001710C21E8
:100E800041710021817170471B491031096801438C
:100E9000194A10321160704701460020164A143278
:100EA00012680A400AB1012000E000207047124990
:100EB0001431086070470146002000220E4B1B6869
:100EC00003EA01020C4B14331B680B4013B10AB147
:100ED000012000E000207047074914310860704786
:100EE0000549183109680021034A1832116011467A
:100EF0000968014311607047000401402DE9F04189
:100F000004460025002600274FF6FF78FE4884425D
:100F100008D10121042000F0DFFE0021042000F0B0
:100F2000DBFE25E0F948844208D10121082000F0C9
:100F3000D3FE0021082000F0CFFE19E0F4488442DF
:100F400008D10121102000F0C7FE0021102000F080
:100F5000C3FE0DE0EF48844208D10121202000F0BB
:100F6000BBFE0021202000F0B7FE01E0BDE8F081CB
:100F700069E00120A84000EA0806002E62D0E64899
:100F8000A90850F82170A807010F0F2088400740DA
:100F9000DD48844201D100200AE0DC48844201D1CE
:100FA000012005E0DA48844201D1022000E003205C
:100FB000A907090F8840B84221D1D8480068B0433A
:100FC000D6490860081D0068B043091D0860081D67
:100FD0000068B043091D0860081D0068B043091D82
:100FE0000860A807010F0F2000FA01F7CA48A908F6
:100FF00050F82100B843C849AA0841F822002068E7
:101000006A00032191408843206005F0080038B150
:10101000606A6907CA0E0F2191400843606206E0CA
:10102000206A6907CA0E0F21914008432062616857
:101030000120A84081436160E0686A00032191407B
:101040008843E0606D1C28FA05F0002891D100BFAC
:101050008CE710B50121084600F03EFE002101207A
:1010600000F03AFE10BDF0B5034600250020002434
:1010700000220026E3E00F884FF0010C0CFA02FC7E
:1010800007EA0C06002E6FD055008F68022F07D09C
:101090008F68122F04D08F6817B18F68032F25D166
:1010A00002F008078FB1586A57074FEAD76C0F272D
:1010B00007FA0CF7B8434FEA427C4FEADC6CCF6882
:1010C00007FA0CF73843586210E0186A57074FEADE
:1010D000D76C0F2707FA0CF7B8434FEA427C4FEA68
:1010E000DC6CCF6807FA0CF7384318621C680F7A7B
:1010F00007F00F000327AF40BC4300FA05F73C435D
:101100001C60DC680F7907F003000327AF40BC4385
:1011100000FA05F73C43DC600F7A07F003076FB174
:101120008F68032F0AD0DC6A8F7807F0030003274B
:10113000AF40BC4300FA05F73C43DC6298680127E6
:101140009740B843CF7807F001079740384398603D
:101150000F79022F09D19F6A4FF0010C0CFA02FCA3
:1011600047EA0C079F620BE068E00F79012F07D177
:101170009F694FF0010C0CFA02FC47EA0C079F61D3
:101180008F68012F08D08F68022F05D08F68112F2C
:1011900002D08F68122F09D1586801279740B843B1
:1011A0000F7AC7F300179740384358608F6807F0ED
:1011B0008057002F42D0594F386801279740B843D5
:1011C0008F6807F48037B7F5803F02D10127974039
:1011D0003843524F38603F1D386801279740B84365
:1011E0008F6807F40037B7F5003F02D10127974019
:1011F00038434A4F3F1D38603F1D386801279740EC
:10120000B8438F6807F48017B7F5801F02D1012714
:1012100097403843414F083738603F1D38680127F1
:101220009740B8438F6807F40017B7F5001F02D145
:10123000012797403843394F0C373860521C0F88CC
:101240001741002F7FF417AFF0BD4FF6FF710180FB
:101250000021C17081600F21C16000210171817086
:1012600070470246002013690B400BB1012000E0DB
:10127000002070470146086980B27047024600208E
:1012800053690B400BB1012000E00020704701467C
:10129000486980B27047816170478161704781629F
:1012A00070470AB1816100E0816270474161704717
:1012B0004FF480320A43C261C161C261C269C2692E
:1012C0007047F0B503461546002200200BB90E4EBC
:1012D00008E0012B01D10D4E04E0022B01D10C4E90
:1012E00000E00C4E344601F00806CEB101F00702D2
:1012F000606A97000F26BE40B043960005FA06F6D6
:101300003043606218E0000000080140000C01401A
:10131000001001400014014004000140000401409D
:1013200001F00702206A97000F26BE40B0439600E6
:1013300005FA06F630432062F0BD70B50246002083
:1013400000240AB93E4D08E0012A01D13D4D04E0D8
:10135000022A01D13C4D00E03C4D2B4601F008052E
:1013600055B101F00704586AA6000F25B540A843FF
:1013700040F00300586209E001F00704186AA60073
:101380000F25B540A84340F00300186270BD3049F6
:10139000C861704730B502462E4B8C1053F824308C
:1013A0008C07250F0324AC40A3432A4C8D1044F82E
:1013B000253023468C1053F824308C07240F02FA72
:1013C00004F41C43234B8D1043F8254030BD0A46DE
:1013D0000021204B1B1F196801238340994302FA07
:1013E00000F319431B4B1B1F196070470246002076
:1013F000092A11D1174B1B1F186820F400701129FE
:1014000002D140F4007003E020F0F00040EA011047
:10141000104B1B1F186011E0082A0FD10D4B1B1F2A
:10142000186820F48070102902D140F4807002E026
:1014300020F00F000843074B1B1F18607047000087
:1014400000080140000C0140001001400014014060
:10145000000020420400014010B50121C80700F03F
:1014600048FC00214FF0004000F043FC10BD00217B
:101470000160817101214171002101710421C1715B
:10148000704718B5514B03EB800213680093042892
:1014900005D1009B23F080730C6823430093009BCD
:1014A00023F038038C79234300934B79012B04D12B
:1014B000009B43F40043009303E0009B23F40043AC
:1014C00000930B79012B04D1009B43F480330093EC
:1014D00003E0009B23F480330093009B23F006037A
:1014E000CC7923430093009B136018BD0246374B11
:1014F00003EB820021B1036843F00103036003E0C2
:10150000036823F001030360704708B52F4B03EB1A
:10151000800213680093009B23F038030B43009371
:10152000009B136008BD08B5284B03EB80021368CD
:101530000093009B23F460130B430093009B136004
:1015400008BD08B5214B03EB800213680093009B94
:1015500023F4C0230B430093009B136008BD08B520
:101560001A4B03EB800213680093009B23F4E063A3
:101570000B430093009B136008BD08B5134B03EBAE
:10158000800213680093009B23F0C0030B43009379
:10159000009B136008BD01460C4800EB81021068F7
:1015A000C0F3803070470246084B03EB820021B144
:1015B000036843F40063036003E0036823F40063FB
:1015C0000360704701490862704700000020004036
:1015D000F848406A40F00400F6494862084640680E
:1015E000F5490840F349486008460068F349084057
:1015F000F04908600846006820F48020086008462A
:101600004068EF490840EB4948604FF4E040C86249
:1016100040100863002048630864EA488860704707
:10162000E449096821F48031E24A116011460968F1
:1016300021F480211160B0F5803F03D0B0F5802FF8
:101640000ED106E0DB49096841F48031D94A1160C6
:1016500007E0D849096841F4A021D64A116000E0AA
:1016600000BF00BF704710B50146002200230020D4
:101670004A11012A02D1CF4C236806E0022A02D186
:10168000CC4C236A01E0CB4C636A01F01F020124B9
:1016900094401C400CB1012000E0002010BD38B582
:1016A000002000900024002500BF3120FFF7DBFF61
:1016B00005460098401C00900098B0F5005F01D0EE
:1016C000002DF2D03120FFF7CEFF08B1012400E059
:1016D0000024204638BDB749096821F00101B54A08
:1016E0001160012805D11146096841F0010111601E
:1016F00000E000BF00BF704738B500200090002414
:10170000002500BF2120FFF7AEFF05460098401CD2
:1017100000900098B0F5A06F01D0002DF2D02120EC
:10172000FFF7A1FF08B1012400E00024204638BDE6
:10173000014600209F4A106820F07C0040EA8100AA
:1017400010607047A049086070479A4A526A22F0B8
:101750007002984B5A621A46526A0A435A6238B16A
:1017600004280CD11A46526A42F004025A6207E079
:10177000904A526A22F004028E4B5A6200E000BF87
:1017800000BF704738B5002000900024002500BF3E
:101790006320FFF768FF05460098401C0090009802
:1017A000B0F5A06F01D0002DF2D06320FFF75BFFF2
:1017B00008B1012400E00024204638BD0146002085
:1017C0007C4A506A20F4FF0040EAC1305062704702
:1017D0007E490860704730B50B4614460021002250
:1017E000744D69682A6C7A4D294022F0030208B1D1
:1017F000012804D1194340EA04052A4303E040EAE2
:101800000305294322436B4D69602A6430BD6E494C
:101810000866704701460020664A506820F00300C1
:101820000843506070476348406800F00C00704700
:10183000014600205F4A506820F0F00008435060E5
:101840007047014600205B4A506820F4E06008437E
:101850005060704701460020564A506820F460509E
:1018600040EAC1005060704731B1524A926842EA82
:101870000022504B9A6005E04E4A926822EA00220C
:101880004C4B9A6070475049D831086041084E4A25
:10189000C2F8DC10704701460020464AD06A20F0AA
:1018A00000500843D062704701460020414AD06A88
:1018B00020F0F8500843D0627047024600203D4BAC
:1018C000D86A20F4003020F4F83010430843D8627E
:1018D000704702460020374BD86A20F4F87009B1EF
:1018E000104302E0104320F48070324BD8627047FE
:1018F000014600202F4AD06A20F00F000843D06232
:101900007047024600202B4B186B20F4003020F467
:101910007840104308431863704730B12549096B7C
:1019200041F48021234A116305E02249096B21F427
:101930008021204A1163704710B5024600201D4BDC
:10194000186B20F400701043186329B11B6B43F02F
:101950008003184C236305E0164B1B6B23F08003B8
:10196000144C236310BD1349096B21F48071114A93
:1019700011631146096B01431163704729B10D4A88
:10198000526B02430B4B5A6304E00A4A526B824388
:10199000084B5A63704731B1064A526B42EA001253
:1019A000044B5A6305E0034A526B22EA0012014BD2
:1019B0005A6370470010024000C0FFF8FEFFF6FEB9
:1019C000FFFF00F70080BF0400004242880442424B
:1019D000FFFFC0F729B1EF4AD2690243ED4BDA614C
:1019E00004E0EC4AD2698243EA4BDA61704710B5F1
:1019F000044601210807FFF7EDFFE748006840F4BF
:101A00008070E5490860E348406B20F00700E14939
:101A100048630846406B2043486310BDDD48406B77
:101A200000F007007047DB49496B21F01801D94AE3
:101A300051631146496B014351637047D548406B70
:101A400000F01800704729B1D24A526C0243D14BC2
:101A50005A6404E0CF4A526C8243CE4B5A647047BA
:101A600029B1CC4A526C0243CA4B5A6404E0C94AB9
:101A7000526C8243C74B5A647047C649496C014354
:101A8000C44A516470470021C44A11686FF30801C9
:101A9000B0F5007F02DB40F2FF1001E0C0F3080068
:101AA0000143BE4A11607047F0B505460E46002757
:101AB00001210807FFF78EFFB748006840F48070E7
:101AC000B5490860B348046A24F00D0465B1012DDE
:101AD00002D0042D18D112E044F00104AD48046294
:101AE0003046FFF7D0FF10E000BFAA48046200278D
:101AF00000E07F1C40F2FF708742FAD305E044F01B
:101B00000404A448046200E000BF00BFF0BDA44983
:101B1000086070479F49096A21F440719D4A11622B
:101B20001146096A0143116270479A48006A00F43D
:101B3000407070479A494439086070479549096A6E
:101B400021F02001934A11621146096A0143116292
:101B500070479048006A00F020007047F0B50021FF
:101B600000BF00230026002400258A4F7F68DFF88D
:101B700034C207EA0C03874F7F6807F48036854F2D
:101B80007F6AC7F3021503F000671FB9022707EB4E
:101B9000934304E04FF4F877C7EB93477B1C66B997
:101BA0007C4F3F6C07F001071FB17F4F03FB07F22B
:101BB0000FE07E4F03FB07F20BE0764F7F6807F4E0
:101BC00000371FB17A4F03FB07F202E0764F03FBA9
:101BD00007F2704F3F6C07F0020707B152086D4FD4
:101BE0007F6807F00C0131B1042909D008290AD017
:101BF0000C290DD10AE06F4F57F8257007600CE0F3
:101C00006A4F076009E0684F076006E0026004E081
:101C1000684F57F82570076000BF00BF5D4F7F68B1
:101C200007F0F0010909644F7C5C0768E7404760F2
:101C3000584F7F6807F4E061090A5F4F7C5C476892
:101C4000E7408760534F7F6807F46051C90A5A4FD5
:101C50007C5C4768E740C7604E4FFF6A07F00F01A2
:101C6000564F7C5C4768B7FBF4F74761494FFF6A02
:101C700007F4F871090901F00F07DFF844C13CF8D7
:101C80001740B2FBF4F70761F0BD29B1414A526930
:101C90000243404B5A6104E03E4A526982433D4B45
:101CA0005A61704729B13B4A92690243394B9A61A4
:101CB00004E0384A92698243364B9A61704729B1F1
:101CC000344A926A0243334B9A6204E0314A926A80
:101CD0008243304B9A62704729B12E4AD268024340
:101CE0002C4BDA6004E02B4AD2688243294BDA603D
:101CF000704729B1274A12690243264B1A6104E052
:101D0000244A12698243234B1A617047244940399F
:101D1000086070472B49C8647047214974390860CE
:101D2000704700201B49096A01F0100109B1012028
:101D300000E00020704701460020164A506820F05D
:101D4000704008435060704701460020114A5068B7
:101D500020F0E06040EA0160506070470D48406A42
:101D600040F080700B4948620846406A20F080705D
:101D70004862704701460020064A92680A400AB14C
:101D8000012000E000207047024989680143014AB0
:101D90009160704700100240007000400818004039
:101DA0008004424200003C0800127A000024F40043
:101DB00000093D001C5A0008DC590008EC590008D5
:101DC000FC5900080000424210B50446FE48844217
:101DD00008D10121C014FFF77FFF0021E014FFF7B5
:101DE0007BFF5EE0B4F1804F08D101210846FFF788
:101DF00080FF00210120FFF77CFF52E0F34884427E
:101E000008D101210220FFF774FF00210220FFF713
:101E100070FF46E0EE48844208D101210420FFF71C
:101E200068FF00210420FFF764FF3AE0E94884429C
:101E300008D101210820FFF75CFF00210820FFF7EF
:101E400058FF2EE0E448844208D101211020FFF71A
:101E500050FF00211020FFF74CFF22E0DF488442B2
:101E600008D101212020FFF744FF00212020FFF7A7
:101E700040FF16E0DA48844208D101214014FFF700
:101E80002BFF00216014FFF727FF0AE0D5488442AA
:101E900007D101214015FFF72CFF00216015FFF746
:101EA00028FF10BD0A4600210168C74B984211D097
:101EB000CB4B98420ED0B0F1804F0BD0C34B984221
:101EC00008D0C34B984205D0C24B984202D0C54BB4
:101ED000984203D121F0700153881943BE4B9842B8
:101EE00006D0BE4B984203D021F44071D3881943E9
:101EF00001609388838513880385B34B984202D091
:101F0000B74B984201D1137A03860123838201687B
:101F1000AD4B984211D0B24B98420ED0B0F1804FE9
:101F20000BD0AA4B984208D0A94B984205D0A94B98
:101F3000984202D0AB4B984206D1537A13B141F488
:101F4000006101E021F40061A64B984214D1937A1C
:101F500013B141F4805101E021F48051D37A13B1DF
:101F600041F4005101E021F40051137B13B141F41D
:101F7000804101E021F48041934B98420ED0984B70
:101F800098420BD0B0F1804F08D0904B984205D0CA
:101F90008F4B984202D0934B984206D1537B13B19A
:101FA00041F4004101E021F4004101604168B0F1D9
:101FB000804F02D0864B984206D1937B13B141F4F7
:101FC000807101E021F480714160704730B50024D8
:101FD00000220023056A25F001050562026A4368B4
:101FE000048B4FF68F752C404FF6FC752C400D88F6
:101FF0002C4322F002020D892A434D882A43724D58
:10200000A84202D0764DA8420FD122F008024D8995
:102010002A4322F004028D882A4323F4807323F498
:1020200000738D892B43CD892B4343600483CD8876
:102030008586026230BD70B5002400220023056A47
:1020400025F010050562026A4368048B48F6FF75A7
:102050002C404FF6FF452C400D884FF6FF7606EAE0
:1020600005252C4322F020020D8942EA05124D88F5
:1020700042EA0512544DA84202D0594DA84213D14C
:1020800022F080024D8942EA051222F040028D883A
:1020900042EA051223F4806323F400638D8943EA46
:1020A0008503CD8943EA850343600483CD88058792
:1020B000026270BD30B5002400220023056A25F4B9
:1020C00080750562026A4368848B4FF68F752C40D9
:1020D0004FF6FC752C400D882C4322F400720D89BC
:1020E00042EA05224D8842EA0522374DA84202D035
:1020F0003B4DA84213D122F400624D8942EA0522E9
:1021000022F480628D8842EA052223F4805323F46E
:1021100000538D8943EA0513CD8943EA05134360D3
:102120008483CD888587026230BD70B5002200238C
:102130000024056A25F480550562036A4468828B91
:1021400048F6FF752A404FF6FF452A400D884FF6A6
:10215000FF7606EA05252A4323F400530D8943EA56
:1021600005334D8843EA0533174DA84202D01C4D74
:10217000A84204D124F480448D8944EA8514446043
:102180008283CD88A0F84050036270BD30B5002432
:1021900000220023056A25F480350562026A43683F
:1021A000B0F854404FF68F752C400D882C4322F424
:1021B00000320D8942EA05424D8842EA0542024D4D
:1021C000A84213D0064D0FE0002C0140000400404F
:1021D00000080040000C00400010004000140040C7
:1021E00000340140003C0040A84204D123F4803375
:1021F0008D8943EA05234360A0F85440CD88A0F8B8
:102200005850026230BD70B5002400220023056AD8
:1022100025F480150562026A4368B0F8544048F618
:10222000FF752C400D884FF6FF7606EA05252C43F6
:1022300022F400120D8942EA05524D8842EA055205
:10224000FB4DA84202D0FB4DA84204D123F48023C9
:102250008D8943EA85234360A0F85440CD88A0F8D7
:102260005C50026270BD828B4FF2FF331A40828352
:10227000828B4FF6FF7303EA01231A438283704770
:10228000F0B50C461546002200210026076A27F407
:1022900080570762828B016A260340F6FF473A4067
:1022A0004FF6FF7707EA05273A434FF6FF7707EA2D
:1022B00003373A43DE4FB84211D0DE4FB8420ED05A
:1022C000B0F1804F0BD0DC4FB84208D0DB4FB842A2
:1022D00005D0DB4FB84202D0DA4FB84205D121F425
:1022E000005146F48057394304E021F4005144F48E
:1022F0008057394382830162F0BD828B4FF6F373BE
:102300001A408283828B0A4382837047F0B50C4661
:102310001546002200210026076A27F4807707620D
:10232000828B016A26024FF60C773A404FF6FF7710
:1023300007EA03172F433A43BD4FB84211D0BD4FB0
:10234000B8420ED0B0F1804F0BD0BB4FB84208D08E
:10235000BA4FB84205D0BA4FB84202D0B94FB842CE
:1023600005D121F4007146F48077394304E021F46B
:10237000206144F48077394382830162F0BD028B8F
:102380004FF2FF331A400283028B4FF6FF7303EACA
:1023900001231A4302837047F0B50C46154600220C
:1023A00000210026076A27F010070762028B016AE6
:1023B000260140F6FF473A404FF6FF7707EA03371A
:1023C0003A434FF6FF7707EA05273A43984FB8425A
:1023D00011D0984FB8420ED0B0F1804F0BD0964F2D
:1023E000B84208D0954FB84205D0954FB84202D0B8
:1023F000944FB84205D121F0200146F0100739432F
:1024000004E021F0A00144F0100739430283016287
:10241000F0BD028B4FF6F3731A400283028B0A431E
:102420000283704770B50C46154600220021066AEB
:1024300026F001060662028B016A4FF60C763240E6
:102440004FF6FF7606EA03162E433243784EB0422B
:1024500011D0784EB0420ED0B0F1804F0BD0764EF6
:10246000B04208D0754EB04205D0754EB04202D091
:10247000744EB04205D121F0020144F0010631430F
:1024800004E021F00A0144F00106314302830162B5
:1024900070BD70B505460C466548854211D065484B
:1024A00085420ED0B5F1804F0BD06348854208D0ED
:1024B0006248854205D06248854202D06148854223
:1024C00000D100E000BF208850B92389A28861882C
:1024D0002846FFF7A7FFE1882846FFF79AFF25E087
:1024E000208804280AD12389A28861882846FFF71A
:1024F00053FFE1882846FFF742FF17E020880828AD
:102500000AD12389A28861882846FFF7FFFEE18867
:102510002846FFF7F2FE09E02389A2886188284651
:10252000FFF7AEFEE1882846FFF79DFE70BD2DE95E
:10253000F04105460C4600260127608808B90226AE
:1025400000E00026A088012801D1022700E0012731
:102550002088A0B92389A28861882846FFF762FFF6
:10256000E1882846FFF755FF23893A463146284639
:10257000FFF712FFE1882846FFF701FF13E02389E8
:10258000A28861882846FFF707FFE1882846FFF701
:10259000F6FE23893A4631462846FFF743FFE18895
:1025A0002846FFF736FFBDE8F08110B502460B88DC
:1025B0004C8823438C882343CC8823430C892343B2
:1025C0004C8923438C892343A2F8443010688B7BC9
:1025D00013B120F4806001E040F48060CB7B13B144
:1025E00040F4803001E020F480300B7C13B140F4E3
:1025F000003001E020F40030106010BD4FF6FF7194
:10260000818000210180C18041800172417281720C
:10261000C172017341738173704700210180418051
:102620008180C180018141818181C1817047000029
:10263000002C01400034014000040040000800402C
:10264000000C0040003C004000210180418001213D
:1026500081800021C180018170470021018041807B
:102660008180C180018141818181704721B10268EF
:1026700042F00102026003E0026822F001020260FF
:10268000704731B1B0F8442042F40042A0F8442031
:1026900005E0B0F84420C2F30E02A0F844207047D1
:1026A0001AB183890B43838102E083898B43838141
:1026B00070478182704741EA0203A0F848307047B2
:1026C0001AB183890B43838102E083898B43838121
:1026D000704701894FF6F8721140018170470A4630
:1026E000002101894FF68F73194011430181704712
:1026F00030B504460D4629462046FFF7F0FF2089F5
:1027000040F00700208130BD2DE9F04104460D4620
:1027100016461F46602D06D13B4601223146204613
:10272000FFF73AFE05E03B46012231462046FFF71F
:1027300079FE29462046FFF7D2FF208940F00700A6
:102740002081BDE8F08130B50C4600210189C9B275
:102750004FF6FF7505EA03251543254329430181FB
:1027600030BD2DE9F04105460E4617469846002437
:1027700043463A4631462846FFF7E5FF2C894FF697
:10278000F870044044F007044FF68F70044044F0A2
:1027900070042C81BDE8F081F0B504460D46164664
:1027A0001F463B46324629462046FFF7CCFF20898C
:1027B00040F480402081F0BD0185828270470A4646
:1027C0000021016821F07001114301607047F0B5EC
:1027D0000C4615461E460021002200230189028B6B
:1027E000036A4FF6F877394021434FF6FC473A40E9
:1027F00040F201173A4323F022034FF6FF7707EA2E
:1028000006172F433B43018102830362F0BD0A4652
:102810000021018B4FF68F731940114301837047DC
:102820000A460021018B48F6FF7319404FF6FF73EB
:1028300003EA02231943018370470A460021818B72
:102840004FF68F7319401143818370470A46002168
:10285000818B48F6FF7319404FF6FF7303EA02239A
:102860001943818370470A460021B0F854104FF68F
:102870008F7319401143A0F8541070470A46002185
:10288000B0F8541048F6FF7319404FF6FF7303EA8F
:1028900002231943A0F85410704721B1026842F096
:1028A0008002026003E0026822F08002026070474A
:1028B00021B1426842F00402426003E0426822F023
:1028C00004024260704721B1426842F0080242604F
:1028D00003E0426822F008024260704721B142687A
:1028E00042F00102426003E0426822F001024260CD
:1028F00070470A460021018B4FF6F77319401143C8
:10290000018370470A460021018B4FF2FF73194083
:102910004FF6FF7303EA02231943018370470A4607
:102920000021818B4FF6F773194011438183704763
:102930000A460021818B4FF2FF7319404FF6FF7357
:1029400003EA02231943818370470A460021B0F845
:1029500054104FF6F77319401143A0F85410704704
:102960000A460021B0F854104FF2FF7319404FF699
:10297000FF7303EA02231943A0F8541070470A4674
:102980000021018B4FF6FB731940114301837047FF
:102990000A460021018B4FF6FF3319404FF6FF73B3
:1029A00003EA02231943018370470A460021818B01
:1029B0004FF6FB7319401143818370470A4600218B
:1029C000818B4FF6FF3319404FF6FF7303EA022362
:1029D0001943818370470A460021B0F854104FF61E
:1029E000FB7319401143A0F8541070470A460021A8
:1029F000B0F854104FF6FF3319404FF6FF7303EA57
:102A000002231943A0F8541070470A460021018B95
:102A10004FF67F7319401143018370470A46002126
:102A2000018BC1F30E014FF6FF7303EA0223194332
:102A3000018370470A460021818B4FF67F7319404E
:102A40001143818370470A460021818BC1F30E0137
:102A50004FF6FF7303EA02231943818370470A4646
:102A60000021B0F854104FF67F7319401143A0F8BD
:102A7000541070470A460021B0F85410C1F30E01FB
:102A80004FF6FF7303EA02231943A0F8541070476E
:102A90000A460021016A21F00201114301627047D8
:102AA0000A460021016A21F00801114301627047C2
:102AB0000A460021016A21F0200141EA0211016267
:102AC00070470A460021016A21F0800141EA0211A3
:102AD000016270470A460021016A21F4007141EA4F
:102AE0000221016270470A460021016A21F4006157
:102AF00041EA0221016270470A460021016A21F47D
:102B0000005141EA0231016270470A460021016A20
:102B100021F4003141EA0241016270470A46002176
:102B2000016A21F4001141EA02510162704730B597
:102B3000002301248C40A3B2046A9C430462046A0B
:102B400002FA01F52C43046230BD30B500230424A1
:102B50008C40A3B2046A9C430462046A02FA01F541
:102B60002C43046230BD70B5034600200024184693
:102B7000183001258D40ACB21D6AE643B6B235402F
:102B80001D6209B1082909D100EB6100056825F033
:102B9000700505600568154305600EE00D1FC5F35F
:102BA0004E052844056825F4E045056005684FF6A4
:102BB000FF7606EA02263543056070BD21B1026842
:102BC00042F00202026003E0026822F002020260A8
:102BD000704721B1026842F00402026003E002681B
:102BE00022F004020260704721B1426842F0800284
:102BF000426003E0426822F080024260704702684F
:102C000022F00802026002680A43026070474268CC
:102C100022F07002426042680A43426070470289B3
:102C20004FF6F8731A40028102890A430281704705
:102C300002894FF67F731A40028102890A4302819A
:102C4000704781847047818570478186704701870E
:102C5000704781877047A0F840107047A0F858105F
:102C60007047A0F85C107047026822F4407202605E
:102C700002680A43026070470146888E7047014629
:102C8000088F70470146888F70470146B1F84000B1
:102C900070470146B1F8580070470146B1F85C0032
:102CA00070470146888C70470146088D7047014681
:102CB000888D704702460020214B9A4202D0214B5A
:102CC0009A4206D1136A0B400BB1012016E0002096
:102CD00014E0B2F1804F0BD01B4B9A4208D01B4B33
:102CE0009A4205D01A4B9A4202D01A4B9A4205D109
:102CF000136A0B400BB1012000E000207047024630
:102D0000002013690B400BB1012000E00020704748
:102D1000CA430261704730B50246002000230024F8
:102D2000156905EA0103958905EA010413B10CB19F
:102D3000012000E0002030BDCA430261704700005E
:102D4000002C014000340140000400400008004015
:102D5000000C0040003C004010B50446E5488442A9
:102D600009D101218803FEF7B7FF00214FF480400D
:102D7000FEF7B2FF32E0E048844209D10121480465
:102D8000FEF7B7FF00214FF40030FEF7B2FF25E059
:102D9000DA48844209D101218804FEF7AAFF002104
:102DA0004FF48020FEF7A5FF18E0D548844209D1F2
:102DB00001214804FEF790FF00214FF40030FEF798
:102DC0008BFF0BE0CF48844208D101218804FEF735
:102DD00083FF00214FF48020FEF77EFF10BD2DE918
:102DE000F04786B005460F460024A24600BF00BF4C
:102DF0000026B88900B100BF2E462C8A4CF6FF7021
:102E00000440F88804432C82AC894EF6F310044049
:102E1000B88839890843798908430443AC81AC8A6E
:102E20004FF6FF400440B8890443AC826846FEF781
:102E300095FEB048864205D0B148864202D0B148DE
:102E4000864202D1DDF80CA001E0DDF808A00AEB13
:102E5000CA0000EB0A1039688900B0FBF1F8642061
:102E6000B8FBF0F004012009642101FB1089322035
:102E700000EB0910B0FBF1F000F00F0004432C81CF
:102E800006B0BDE8F0874FF4165101600021818043
:102E9000C18001810C21418100218181704710B5E1
:102EA00002460020108A4FF2FF0318400B884C881E
:102EB00023438C882343CC8823431843108210BDBE
:102EC0000021018041808180C180704721B18289C9
:102ED00042F40052828104E082894DF6FF731A4069
:102EE00082817047F0B503460024002600250020AB
:102EF00040F66A17B94200D100BF1846C1F3421428
:102F000001F01F06012707FA06F5012C01D10C304C
:102F100004E0022C01D1103000E014301AB107682F
:102F20002F43076002E00768AF430760F0BD1AB1A6
:102F3000838A0B43838202E0838A8B4383827047B8
:102F4000028A4FF6F0731A400282028A0A43028212
:102F5000704782894FF2FF731A40828182890A4347
:102F60008281704721B1828942F00202828104E0AD
:102F700082894FF6FD731A4082817047028A4FF6AC
:102F8000DF731A400282028A0A430282704721B12B
:102F9000028A42F48042028204E0028A4BF6FF7306
:102FA0001A4002827047C1F30802828070470146CE
:102FB0008888C0F308007047818941F00101818150
:102FC0007047028BD2B20283028B42EA0122028353
:102FD0007047028B02F47F420283028B0A43028312
:102FE000704721B1828A42F02002828204E0828A04
:102FF0004FF6DF731A408282704721B1828A42F015
:103000001002828204E0828A4FF6EF731A408282B5
:10301000704721B1828A42F00802828204E0828AEB
:103020004FF6F7731A4082827047828A4FF6FB731D
:103030001A408282828A0A438282704721B1828A40
:1030400042F00202828204E0828A4FF6FD731A4047
:103050008282704702460020B1F5007F00D100BF98
:1030600013880B400BB1012000E00020704701F4F1
:103070000072B2F5007F00D100BFCA4302807047E2
:1030800070B50246002400230025002040F66A1691
:10309000B14200D100BFC1F3421501F01F03012668
:1030A00006FA03F3012D02D19689334006E0022D82
:1030B00002D1168A334001E0968A33400C12012671
:1030C00006FA04F41688344013B10CB1012000E074
:1030D000002070BD10B50022002340F66A14A14202
:1030E00000D100BF0A1201249440A3B2DC43048043
:1030F00010BD00000038014000440040004800407E
:10310000005001400054014010B5044624B1012C88
:103110000FD0022C2BD119E001210820FEF7C2FDAF
:1031200001210820FEF7BEFD01214804FEF7BAFD8B
:103130001DE001211020FEF7B5FD01212020FEF742
:10314000B1FD01218804FEF7ADFD10E0012108204A
:10315000FEF7A8FD01210820FEF7A4FD01211020A3
:10316000FEF7A0FD01218804FEF734FC00BF00BF7C
:1031700010BD1FB5044600200090019002900390FE
:103180006846FEF762F824B1012C1AD0022C59D1FE
:103190002FE006200390022002900120ADF80000ED
:1031A0006946A948FDF75FFF01208DF80400022061
:1031B000ADF80000062003906946A348FDF753FFD1
:1031C00040E00620039002200290C002ADF800000B
:1031D00069469E48FDF747FF01208DF80400042052
:1031E000ADF800000620039069469948FDF73BFFC3
:1031F00028E000200390022002904002ADF8000079
:1032000069469148FDF72FFF0520039001208DF8B6
:103210000400C002ADF8000069468B48FDF723FFAB
:1032200001208DF804000002ADF80000012002909A
:1032300069468648FDF717FF4FF480718348FEF713
:103240002AF800BF00BF1FBD70B586B006460D4608
:10325000144600200290039004900590019002A86B
:10326000FFF711FE3046FFF74FFF3046FFF781FFB3
:103270000CB900BFFEE726B1012E2FD0022E2CD1B3
:1032800059E002950020ADF80C00ADF80E00ADF845
:1032900010000C20ADF812000020ADF814002F2013
:1032A0008DF8040001208DF8070000208DF805003E
:1032B0008DF8060001A8FDF7D4F8012240F225514F
:1032C0006448FFF70FFE6448046002A96148FFF7F5
:1032D00086FD01215F48FFF7F9FD59E002950020C6
:1032E000ADF80C00ADF80E00ADF810000C20ADF8F4
:1032F00012000020ADF8140030208DF804000120E9
:103300008DF8070000208DF805008DF8060001A853
:10331000FDF7A7F8012240F225515048FFF7E2FDE2
:103320004D48446002A94D48FFF759FD01214B4823
:10333000FFF7CCFD2CE002950020ADF80C00ADF8B5
:103340000E00ADF810000C20ADF812000020ADF812
:10335000140027208DF8040001208DF807000020BC
:103360008DF805008DF8060001A8FDF77AF8012216
:1033700040F225513A48FFF7B5FD3748846002A96D
:103380003748FFF72CFD01213548FFF79FFD00BFAF
:1033900000BF06B070BD2DE9F04104460E46174649
:1033A0000025A84624B1012C05D0022C11D105E03E
:1033B000DFF8A0800DE0DFF8A4800AE0DFF8A0804D
:1033C0004FF480712148FDF76AFF012000F083F877
:1033D00000BF00BFB8F1000F01D100BFFEE700251C
:1033E0000BE0715D4046FFF7DEFD00BF80214046E7
:1033F000FFF730FE0028F9D06D1CBD42F1D324B197
:10340000012C03D0022C0BD101E009E008E00120DF
:1034100000F061F84FF480710C48FDF73CFF00BFED
:1034200000BFBDE8F08170B504460D46E1B2094821
:10343000FFF7B9FD00BF80210648FFF70BFE00280B
:10344000F9D0204670BD0000000C01400010014082
:103450000014014000500140FC00002000540140D5
:103460000048004030B5214800684FF47A72B0FB44
:10347000F2F1481EB0F1807F01D301201BE0481E0D
:103480004FF0E022506150170F22002804DB130791
:103490001C0E174B1C5406E013071D0E154B00F0B5
:1034A0000F04241F1D5500BF00204FF0E022906143
:1034B00007201061002008B100BFFEE730BD4FF0CB
:1034C000E020006920F001004FF0E0210861704722
:1034D0000948006870470021074A1268111800BFA8
:1034E000054A12688A42FBD970470000000000209C
:1034F00000E400E018ED00E004000020704700BF89
:10350000FEE700BFFEE700BFFEE700BFFEE7704733
:10351000704719480068401C174908607047704799
:1035200010B516498868804710BD10B51349086862
:10353000804710BD10B511494868804710BD10B5CF
:1035400000F0FAFC10BD704710B50D4908688047BF
:1035500010BD704710B50B4AD0681168884710BD80
:1035600010B5084AD0685168884710BD10B5054AA3
:10357000D0689168884710BD04000020FC0000203E
:10358000B00000202001002010B5002400BF0FE093
:1035900004EB4402364B03EBC20202F1080104EBD8
:1035A000440203EBC2025068FDF75DFD601CC4B22B
:1035B000032CEDDB10BD044621E004EB44022C4B50
:1035C00003EBC202118904EB440203EBC202506810
:1035D000FDF761FE4FF4FA70FFF77DFF04EB440244
:1035E000234B03EBC202118904EB440203EBC2023A
:1035F0005068FDF754FE4FF4FA70FFF76CFFDCE7FC
:1036000070B506460D46002400BF2DE004EB4400D3
:10361000174911F83000B04224D16DB904EB4402CF
:103620000B4603EBC202118904EB440203EBC20216
:103630005068FDF730FE14E0012D0DD104EB44027B
:103640000B4B03EBC202118904EB440203EBC202F1
:103650005068FDF724FE04E0022D02D13046FFF74A
:10366000AAFF03E0601CC4B2032CCFDB00BF70BD17
:103670000800002010B501211020FEF713FB10BD3B
:1036800010B5FFF7F7FF002400BF0FE004EB440282
:10369000454B03EBC20202F1080104EB440203EBC9
:1036A000C2025068FDF7DFFC601CC4B2022CEDDBE7
:1036B00010BD10B500243C4A11895068FDF7D1FDBA
:1036C0000446012C09D13948007930B90120374925
:1036D0000871FFF7FDFE354908603448007901287C
:1036E0001AD1FFF7F5FE31490968401A0A2813D9A3
:1036F0002D4A11895068FDF7B4FD0446012C08D10C
:103700002A49487108468068401C886028A001F05A
:103710004DFA02202549087154B92448007902283D
:1037200006D129A001F042FA002020490871487111
:103730001D4A118CD069FDF794FD0446012C09D176
:103740002748007930B9012025490871FFF7C0FEEC
:103750002349086022480079012817D1FFF7B8FEF5
:103760001F490968401A0A2810D90F4A118CD069DC
:10377000FDF777FD0446012C05D10020184948715A
:1037800018A001F013FA0220154908715CB9144819
:103790000079022807D118A001F008FA0120104989
:1037A00048710020087110BD680000200801002049
:1037B00053544152542F53544F50204B45592D2DA3
:1037C0003E444F574E0D0A0053544152542F535408
:1037D0004F50204B45592D2D3E55500D0A000000ED
:1037E0001401002043432F434357204B45592D2DAF
:1037F0003E444F574E0D0A0043432F434357204B3F
:1038000045592D2D3E55500D0A00000010B50121DF
:10381000C807FEF7DFF801210520FEF743FA10BDC7
:103820001FB5002000900190029003906846FDF7BC
:103830000CFDC0210020FDF7A0FE03200290010234
:103840000020FDF78CFE8020ADF800006946184886
:10385000FDF709FC032002900420ADF800001020C1
:103860008DF8020069461248FDF7FDFB1FBD1CB52F
:103870006846FDF7FCFD20208DF8060001208DF83C
:10388000050004208DF8070000208DF8040069462B
:10389000FDF7F7FD01210020FDF728FE1CBD10B546
:1038A000FFF7B4FFFFF7BCFFFFF7E1FF10BD00001B
:1038B0000008014010B501214807FEF78BF80121EF
:1038C0000420FEF7EFF910BD1FB56846FDF7BDFCFB
:1038D000032002901020ADF8000000208DF80400B5
:1038E00069461448FDF7BFFB1FBD1FB50446002005
:1038F000039002903C200090002001906846FDF764
:10390000F8F80120FDF710F96420FFF7E4FD2146E7
:103910000020FDF764F90120FDF724F91FBD10B563
:103920000446FFF7C7FFFFF7CFFF2046FFF7DDFF95
:1039300010BD00000008014010B501210D20FEF768
:10394000B1F90121C802FEF7ADF910BD1FB5002085
:1039500000900190029003906846FDF776FC1020DD
:103960008DF80200022002904FF47060ADF8000064
:103970000220039069468148FDF775FB4FF46040D3
:10398000ADF8000069467E48FDF76DFB6846FDF71F
:103990005CFC10208DF802000520039002200290AC
:1039A0008DF80400C002ADF8000069467448FDF7C8
:1039B0005AFB1FBD00B58FB041F217507149088006
:1039C0007148FEF701FA0BA8FEF718FE0020ADF8CB
:1039D0002C00ADF82E006B480088ADF830000020B8
:1039E000ADF832008DF834000BA96748FEF75AFA9B
:1039F00007A8FEF712FE6020ADF81C000120ADF80C
:103A00001E000420ADF8200040F68B20ADF8220007
:103A10000020ADF82400ADF82600ADF82800ADF880
:103A20002A0007A95848FEF7D1FA07A95648FEF719
:103A300002FB07A95448FEF73DFB6020ADF81C00CF
:103A40000120ADF81E0040F68B20ADF8220007A93A
:103A50004D48FEF76AFB4FF40060ADF804004010DB
:103A6000ADF806008000ADF80C000020ADF80A00AB
:103A7000ADF810004FF40050ADF80E000020ADF886
:103A800008008DF814008DF812008DF8130001A9BC
:103A90003D48FEF78AFD80213B48FFF74DF90122A2
:103AA00080213948FEF7FCFD18208DF81800012010
:103AB0008DF81B0003208DF8190000208DF81A00E6
:103AC00006A8FCF7CEFC01212F48FEF7CFFD01210F
:103AD0002D48FEF7D6FD0FB000BD70B504460D466B
:103AE00005B10CB900BFFEE7284805604460FFF748
:103AF00023FFFFF72BFFFFF75DFF70BD2249343135
:103B00000880091D0880091D088008B940F68C202E
:103B1000C1101D4A4032118070471B49203109688D
:103B200088B24FF6FE7108404FF6EF7108404FF62D
:103B3000FF6108404FF6FB7108404FF6BF71084027
:103B40004FF6FF31084010492031086070470E4998
:103B50002031096888B240F0010040F0100040F4C4
:103B6000807040F4805040F0040040F0400040F489
:103B7000806005492031086070470000000801405E
:103B8000000C0140B8000020002C0140B0000020D3
:103B90001FB501213C20FEF785F86846FDF755FB6F
:103BA00010208DF80200012002902020ADF80000C6
:103BB00069460248FDF757FA1FBD0000001001409A
:103BC00010B501210803FEF760F801211520FEF76A
:103BD00069F810BD1FB5002000900190029003907D
:103BE0006846FDF732FB0320029010208DF802009A
:103BF0000120ADF8000069466F48FDF734FA022055
:103C0000ADF8000069466C48FDF72DFA2020ADF8AC
:103C1000000069466848FDF726FA4020ADF800002C
:103C200069466548FDF71FFA0120ADF800006946B6
:103C30006248FDF718FA1020ADF8000069465F48A9
:103C4000FDF711FA1FBD00B585B003208DF81000F7
:103C5000002003904FF46020029000208DF80500B2
:103C600001208DF8040001A95548FCF771FC0223DE
:103C7000012207215248FCF70CFD02231A460B21B2
:103C80004F48FCF706FD022303220F214C48FCF7A6
:103C900000FD04214A48FCF7F5FD022301221146EC
:103CA0004748FCF7A6FD02231A4619464448FCF78C
:103CB000A0FD0223032206214148FCF79AFD4FF4A0
:103CC00080513F48FCF76DFD00213D48FCF753FD56
:103CD00001213B48FCF76DFC00BF20213848FCF770
:103CE000A4FE0028F9D03648FCF78CFC00BF34480D
:103CF000FCF796FC0028FAD113208DF80000012073
:103D00008DF8030000208DF801008DF80200684650
:103D1000FCF7A7FB01224FF490612948FCF766FCF1
:103D200001212748FCF757FC01212548FCF714FD29
:103D300001212348FCF73DFD01212148FCF77DFCD2
:103D400005B000BD00B58BB01E48FCF763FF002036
:103D50000A901D4801904FF4806007900120059063
:103D600017484C30009080150690002004900320E6
:103D7000039020200890002002904FF400500990FA
:103D800069461048FCF7B7FF01230E4A0D49083970
:103D90000020FDF712F801210A48FCF7D7FF0BB00D
:103DA00000BD10B5FFF70CFFFFF714FFFFF74BFF47
:103DB000FFF7C8FF10BD00000008014000100140DF
:103DC0000008024008000240C400002010B5012194
:103DD0001020FDF767FF10BD1FB500200090019077
:103DE000029003906846FDF730FA10208DF802002B
:103DF000002002908DF804000E20ADF80000694606
:103E00004B48FDF730F91FBD0EB500200190029020
:103E100000900220019000208DF8080010208DF8FD
:103E2000090000208DF80A0001A8FCF7DEFF04203D
:103E3000019001A8FCF7D9FF0820019001A8FCF728
:103E4000D4FF07208DF8000001208DF8030000202A
:103E50008DF801008DF802006846FCF702FB08208F
:103E60008DF800006846FCF7FCFA09208DF8000088
:103E70006846FCF7F6FA0EBD0EB5002001900290E0
:103E800000900220019000208DF8080010208DF88D
:103E9000090000208DF80A0001A8FCF7A6FF042005
:103EA000019001A8FCF7A1FF0820019001A8FCF7F0
:103EB0009CFF07208DF8000000208DF803000320F0
:103EC0008DF801008DF802006846FCF7CAFA082058
:103ED0008DF800006846FCF7C4FA09208DF8000050
:103EE0006846FCF7BEFA0EBD10B50446206818B14E
:103EF000606808B1A06808B900BFFEE70D492068F6
:103F0000086060684860A0688860FFF75FFFFFF79F
:103F100063FF01210220FDF73DFA02210846FDF76B
:103F200039FA03210220FDF735FAFFF7A5FF10BD8E
:103F3000001001402001002010B54FF4906124488A
:103F4000FCF71DFD012842D120212248FDF7A3F9ED
:103F500004211F48FCF70FFD14211D48FCF7A8FCA5
:103F60001D49088018211A48FCF7A2FC1A4948800C
:103F70001C211748FCF79CFC174988802021144815
:103F8000FCF796FC1449C88014480088144908803E
:103F90001248408848801148808888800E480088F0
:103FA000C8800D48408808810B48808848810A48AD
:103FB000C088888101210648FCF73FFB2021054885
:103FC000FDF76DF907480068401C0649086010BD00
:103FD0000008024000100140CA000020C400002078
:103FE00030010020D400002010B501211448FEF754
:103FF00092FEC0B101211248FEF79EFE11480088D2
:10400000401C10490880088800EBD0714910A0EBD3
:10401000410121B920210C48FDF73DF903E02021A1
:104020000948FDF73CF910BD10B580210448FEF7A2
:1040300072FE18B180210248FEF77EFE10BD00001E
:10404000002C0140D80000200010014010B50446AB
:104050004C4801780078401C4A4A10704A48445441
:1040600010460078401E4849085C0A2808D10822FA
:1040700046A1454800F05CFA10B9FF204649087097
:1040800010BD08B50020009040F225514348FEF7CE
:10409000F7FF68B14148FEF78AFFC0B200909DF873
:1040A0000000FFF7D3FF012269460020FFF773F9F4
:1040B00040F227713948FEF7E3FF4FF45871374853
:1040C000FEF7DEFF18B1354800883448808808BD07
:1040D00008B50020009040F225513148FEF7D0FF8E
:1040E00048B12F48FEF763FFC0B200900122694635
:1040F0001046FFF750F940F227712948FEF7C0FF3C
:104100004FF458712648FEF7BBFF20B124480088C1
:104110002348001D008808BD08B50020009040F22B
:1041200025512048FEF7ACFFD8B11E48FEF73FFFEF
:10413000C0B200909DF800101B4802680068401C47
:10414000194B186019488154012269460220FFF773
:1041500022F915480068B0F5806F02D3002012499B
:10416000086040F227710F48FEF78AFF4FF458713C
:104170000C48FEF785FF20B10A4800880948001D59
:10418000008808BDE10000203E0500204F56455242
:10419000464C4F5700000000E00000200050014056
:1041A0000054014000480040DC0000203E01002097
:1041B00010B504460220FCF77EFE18B10220FCF781
:1041C0008BFEA04710BD10B504460420FCF773FE1B
:1041D00018B10420FCF780FEA04710BD10B50446BE
:1041E0000820FCF768FE18B10820FCF775FEA04710
:1041F00010BD00004FF44070FCF72EF9FFF732F9C4
:104200001D4A4FF4E1310020FFF71EF81B4A4FF41E
:10421000E1310120FFF718F8194A4FF4E13102208B
:10422000FFF712F8FFF7B4FCFFF7AEF9FFF728FA33
:104230004FF49670FFF773FBFFF731FBFFF7B1FD0B
:1042400010491148FFF749FC1048FFF74DFE0021C7
:104250000846FFF7D5F900210120FFF7D1F9002129
:104260000220FFF7CDF905E0FFF723FA00F010F880
:1042700000F026F8F8E7000083400008D14000086D
:1042800019410008E93F000829400008E400002027
:1042900010B50648007840B10020FFF740FB002031
:1042A0000249087002A000F081FC10BDE00000206F
:1042B0004F564552464C4F5720546573740D0A00B3
:1042C0002DE9F0412DED108B88B00024FFF700F9A7
:1042D00079490968401A32287DD9FFF7F9F87649FB
:1042E00008607648048800EE104AB8EE401A9FED48
:1042F000740AC1EE000A9FED730A20EE808A9FEDDA
:10430000720AC8EE000A7148C0ED000A6B48448882
:104310009FED6F0AF0EE408A9FED6E0A8DED070A61
:104320009FED6D0A8DED060A9FED6C0A10EE106A86
:104330009FED6B0A10EE107A9FED650A10EE105A91
:1043400000EE104AB8EE400ADFED5D0A20EE200ACA
:10435000DFED5C0A20EE200A10EE101A084600F08D
:104360007EFA41EC1A0B9FED5F0B53EC102B00F023
:1043700092F941EC190B00F085FA0546284600F049
:104380006EFA41EC1A0B284600F069FA41EC1D0B5D
:104390009FED540B53EC102B00F07DF941EC1C0BFE
:1043A0009FED520B53EC102B00F078F941EC1B0BF6
:1043B00053EC1A2B00F0E4F941EC190B00F062FA0F
:1043C00008EE900A384600F04AFA41EC1B0B3046E2
:1043D00000F045FA00E06AE0CDE904019DED070A2E
:1043E000C8EE800A10EE908A404600F038FACDE917
:1043F00000019DED000B00F0EBFB8DED020B9DED40
:10440000040B53EC102B9DED020B51EC100B00F044
:10441000B7F941EC1E0B9DED060AF7EE000A80EE9F
:10442000801A11EE108A404600F019FA41EC1F0B79
:1044300053EC1E2B00F08BF841EC1D0B53EC1D2BA5
:104440009FED2C0B51EC100B00F09AF941EC1C0B7A
:1044500053EC1B2B00F01CF941EC1A0B9FED270BC2
:1044600053EC102B00F073F841EC190B00F00AFA32
:1044700016494860084690ED010A10EE101A0846E9
:1044800000F0EDF941EC190B104890ED000A10EE28
:10449000101A084600F0E3F941EC1A0B8DED009B71
:1044A00053EC1A2B214617A000F080FB00BF08B088
:1044B000BDEC108BBDE8F081F00000203001002041
:1044C00000F07F4533335340ABAAAA3D600500207E
:1044D0000000000000401C463313954300A05745E0
:1044E000339388436666666666660A40000000008D
:1044F0000088C340000000000000F03F0000000002
:104500000000E03F4144433A3078253034582020C1
:10451000565F4255533A252E3266560D0A2C746565
:104520006D70657261747572653A252E336654003C
:1045300030B505460020034600E05B1C934205D2DF
:10454000EC5CC85C201A01D1002CF6D130BD2DE9FD
:10455000FE4F804681EA0300C00F0C46009021F018
:10456000004123F00045B8EB0200A94105D24046C6
:10457000214690461C460B46024623F0004010435D
:1045800047D0270DC7F30A00C3F30A510290401A1F
:10459000019040286BDAC3F3130040F4801B0098AD
:1045A000924620B10023D2EB030A63EB0B0B019878
:1045B0005946C0F14002504600F0C7F906460D4684
:1045C00050465946019A00F0CFF910EB08006141BE
:1045D000002487EA115284EAE7731A4340D0009A14
:1045E00062B3019A012A4FEA075215DC001B61EB06
:1045F00002014FF0004202EA0752CDE90042001CDE
:1046000041F5801132462B4600F006FA03B0BDE8B2
:10461000F08F40462146F9E7001B61EB0201001CC8
:1046200041F5801300185B412018A2F5001747EBF5
:10463000030140EAD570B6196D4111E06D084FEAEB
:10464000360645EAC0754FEA0752001B61EB0201CE
:10465000001C41F5801149084FEA30000019514112
:1046600032462B4603B0BDE8F04F00F0C6B90098C3
:10467000012240000023D0EB020263EBE0730098BC
:1046800021464FEAE074B8EB000061EB0401E9E772
:1046900083F000435BE781F0004158E72DE9FE4FCE
:1046A00081EA030404F0004421F0004100944FF03B
:1046B000000B23F0004350EA01045ED052EA0304E9
:1046C0005BD0C3F30A54C1F30A552C44A4F2F3346B
:1046D0000194A0FB0254C1F3130141F48011C3F310
:1046E000130343F4801301FB024400FB034E840ACE
:1046F000970A44EA815447EA8357A4FB0768029566
:104700008D0A05FB07854FEA932C04FB0C54270503
:10471000029D4FEA065847EA1637B5EB08056EEBDF
:10472000070C870E920E47EA811742EA8312A7FB15
:104730000201B6EB0B0164EB00042B0D43EA0C33D2
:104740005E1844EB1C50DA465146E7FB0201C5F304
:1047500013044FEA0B3343EA14534FEA0432019C2B
:1047600043EA0603A4F10C040294009CCDE900B4D2
:1047700000F052F903B0BDE8F08F00200146F9E7E0
:104780002DE9F04D81EA030404F0004B21F00045CF
:1047900014464FF0000A23F0004150EA050220D0F1
:1047A00054EA01021DD0C5F30A570246C5F31303AC
:1047B000C1F31300C1F30A5640F4801543F480138B
:1047C000A7EB0608101BD64608F2FD3873EB050070
:1047D00002D308F1010801E092185B41B8F1000F23
:1047E00003DA00200146BDE8F08D00204FF480116F
:1047F000064684460EE0171B73EB050705D3121B14
:1048000063EB050306434CEA010C49084FEA30000C
:1048100092185B4150EA0107EDD152EA030012D031
:1048200082EA040083EA0501084305D0101BAB416E
:1048300006D20122002306E000224FF0004302E0EE
:104840006FF0010253101AEB06004CEB085110EB0D
:104850000A0041EB0B01BDE8F04D00F0CEB800F0CE
:10486000004230F000400AD0C10D01F56071C0F384
:10487000160042EA0151C208400711437047002068
:104880000146704701F0004330B421F0004150EA86
:10489000010206D00A0DA2F56072C1F31301002ACD
:1048A00002DC30BC00207047440F44EAC104C10060
:1048B000E01830BC00EBC25000F068B830B50B46D1
:1048C000014600202022012409E021FA02F59D4240
:1048D00005D303FA02F5491B04FA02F52844151E14
:1048E000A2F10102F1DC30BD2DE9F05F05460020A8
:1048F00092469B4688460646814640241BE0284651
:1049000041464746224600F041F953465A46C01AEE
:10491000914110D311461846224600F016F82D1A80
:1049200067EB01084F4622460120002100F00DF8F8
:1049300017EB00094E41201EA4F10104DFDC4846BC
:1049400031462A464346BDE8F09F202A04DB203A40
:1049500000FA02F1002070479140C2F1200320FAD2
:1049600003F3194390407047202A06DBCB17203A07
:1049700041FA02F043EAE07306E041FA02F3D04064
:10498000C2F1200291400843194670470029A8BF90
:104990007047401C490008BF20F00100704710B468
:1049A000B0FA80FC00FA0CF050EA010404BF10BC1D
:1049B000704749B1CCF1200421FA04F411FA0CF14A
:1049C00018BF012121430843A3EB0C01CB1D4FEA83
:1049D00000614FEA102042BF002010BC704700EB7E
:1049E000C35010440029A4BF10BC7047401C4900AC
:1049F00008BF20F0010010BC704710B5141E73F101
:104A0000000408DA401C41F1000192185B411A438E
:104A100001D120F0010010BD2DE9F04D92469B46DA
:104A200011B1B1FA81F202E0B0FA80F22032904680
:104A3000FFF78BFF04460F4640EA0A0041EA0B01EC
:104A400053465A46084313D0114653EA010019D081
:104A5000C8F14002504600F099F805460E4650460F
:104A600059464246FFF771FF084305D0012004E094
:104A700020463946BDE8F08D0020054346EAE07641
:104A80002C4337430A986305E40AA0EB0800002290
:104A9000FD0A44EA47540A3002D500200146E9E7FE
:104AA000010510196941DDE9084500196941BDE8B2
:104AB000F04DA2E70EB5C10F80EAE0700844CA07C6
:104AC000002140F233438DE80E000A460B46FFF703
:104AD000A3FF03B000BDC1F30A52C1F3130140F2BA
:104AE000FF3341F480119A4202DA002001467047F8
:104AF00040F233439A42A2F2334202DC524200F0C7
:104B000045B8FFF722BF000030B5041E71F1000464
:104B100004DB4FF00044404264EB0101141E73F1CA
:104B2000000405DB1C464FF00043524263EB0403D4
:104B30008B4208BF824230BD30B5041E71F10004C3
:104B400004DB4FF00044404264EB0101141E73F19A
:104B5000000405DB1C464FF00043524263EB0403A4
:104B6000994208BF904230BD064C074D06E0E06810
:104B700040F0010394E8070098471034AC42F6D3A4
:104B8000FBF7E6FA785A0008985A0008202A04DB56
:104B9000203A21FA02F00021704721FA02F3D040B6
:104BA000C2F1200291400843194670470FB4054BEB
:104BB00010B503A9044A029800F076FB10BC5DF81A
:104BC00014FB000027340008F4000020000000005F
:104BD00070B5D94B00242DED020B2DED108BDDE9C6
:104BE0001010984205DA20F000429A4201D809D10B
:104BF00041B19DED100BBDEC108B02B0BDE87040D3
:104C000000F05EBAB0F5801F26DA11430BD0002801
:104C100013DA012000F080FABDEC108B02B0BDE881
:104C2000704000F059BA022000F076FA00F030FA35
:104C300051EC100B81F000419EE06FF035049FEDC8
:104C4000C00B53EC102B9DED100B51EC100BFFF72C
:104C500025FDCDE91001084604EB2051C0F31304F3
:104C6000B948A1F2FF31204400F4801080F07F6247
:104C700082F04052224301EB20559FEDB50B11927B
:104C800053EC102B9DED100B51EC100BFFF700FDBA
:104C900041EC180BA01CC0F313009FEDAFDB9FEDA0
:104CA000B0EBB14E7E4403286CD296ED000B51EC74
:104CB000180B53EC102BFFF727FF1DD1002D01BF60
:104CC00096ED000BBDEC108B02B070BD2846FFF7CF
:104CD000F1FE41EC180B53EC1D2BFFF7DFFC41EC10
:104CE000190B53EC1E2B51EC180BFFF7D7FC53ECB0
:104CF000192BFFF72CFC3FE09FED9D0B51EC180B9F
:104D000053EC102BFFF7CAFC9FED9B1B53EC112BB0
:104D1000FFF7C1FC41EC190B53EC182B51EC180BAD
:104D2000FFF7BCFC53EC192BFFF7B8FC41EC190B57
:104D3000002D04BF53EC192B51EC180B1AD0284648
:104D4000FFF7B8FE41EC1A0B53EC1D2BFFF7A6FC46
:104D500053EC192BFFF79FFC53EC182BFFF798FC33
:104D600041EC180B53EC1E2B51EC1A0BFFF796FC81
:104D700053EC182BFFF78CFCBDEC108B02B041EC10
:104D8000100B70BD9FED7E0B51EC180B53EC102BEC
:104D9000FFF7DDFB41EC100B51EC180B53EC102B23
:104DA000FFF7EEFC41EC190B2846FFF783FE41ECC0
:104DB0001B0B53EC192B51EC190BFFF76FFC41EC5B
:104DC0001A0B714853EC1A2B261851EC1A0BFFF7EB
:104DD00065FC41EC1F0B6D48C4F1510404F5D72468
:104DE000B0EE4F0AF0EE6F0A0321784400F0D2F8DB
:104DF00053EC1F2B51EC100BFFF750FC41EC1C0B3C
:104E00006348B0EE4F0AF0EE6F0A0421784400F0D8
:104E1000C1F853EC1A2B51EC100BFFF73FFC344355
:104E200053EC1C2BFFF793FB41EC1C0B002C4CDDCF
:104E30009FED510B51EC180B53EC102BFFF72EFC90
:104E400053EC182BFFF72AFC41EC1A0B55B353EC2B
:104E50001D2B51EC1B0BFFF721FC41EC1D0B53EC00
:104E60001C2B51EC1A0BFFF772FB53EC192BFFF7BD
:104E700015FC53EC1D2BFFF76AFB53EC1A2BFFF7C5
:104E80000AFC53EC182BFFF703FC41EC180B53EC16
:104E90001E2B51EC1B0BFFF701FC53EC182BFFF7FB
:104EA000F7FB69E753EC1C2B51EC1A0BFFF74FFB98
:104EB00053EC192BFFF7F2FB53EC1A2BFFF7EBFB2C
:104EC00053EC182BFFF7E7FB56E735B353EC1D2BDC
:104ED00051EC1B0BFFF7E2FB41EC1A0B53EC1C2BC4
:104EE00051EC180BFFF7D4FB53EC192BFFF7D6FB53
:104EF00053EC1A2BFFF7CCFB53EC182BFFF7C8FB36
:104F000041EC180B53EC1E2B51EC1B0BFFF7C6FBAF
:104F100053EC182BFFF7BCFB2EE753EC1C2B51EC8A
:104F2000180BFFF7B5FB53EC192BFFF7B7FB53EC4E
:104F3000182BFFF7B0FB1FE70000F07F0000000018
:104F40000000000000005043645F09000000000002
:104F5000000000000000F03F763C7935EF39EA3D73
:104F60000000E0FE422EE63FC80D000000000000F9
:104F7000555555555555D53F000000000000E03F00
:104F8000000000000000004086EBF9FF4A0C000022
:104F9000400C000070B504462DED028B4D1E00EB59
:104FA000C500B0EE408AF0EE608A90ED000B35F05F
:104FB000060017D053EC182B51EC100BFFF76EFBCB
:104FC00041EC100B6D1E04EBC50090ED001B51EC85
:104FD000100B53EC112BFFF7BAFA41EC100B35F024
:104FE0000600E7D1022D36D0042D1CD0062D1CBFA3
:104FF000BDEC028B70BD53EC182B51EC100BFFF77E
:105000004DFB94ED0A1B53EC112BFFF7A0FA53EC68
:10501000182BFFF743FB94ED081B53EC112BFFF704
:1050200096FA41EC100B53EC182B51EC100BFFF7D8
:1050300035FB94ED061B53EC112BFFF788FA53EC6C
:10504000182BFFF72BFB94ED040B53EC102BFFF701
:105050007EFA41EC100B53EC182B51EC100BFFF7C0
:105060001DFB94ED021B53EC112BFFF770FA53EC70
:10507000182BFFF713FB94ED001B53EC112BFFF7DC
:1050800066FABDEC028B41EC100B70BD0000000015
:105090009FED070B10B553EC102B9FED070B51EC58
:1050A000100BFFF76DFB41EC100B10BD0000000072
:1050B0000000000000000000000000000000F03FC1
:1050C00010B553EC102B51EC100BFFF740FA41ECEC
:1050D000100B10BD000000009FED050B10B553EC48
:1050E000102B51EC100BFFF74BFB41EC100B10BDDC
:1050F000000000000000000002E008C8121F08C104
:10510000002AFAD170477047002001E001C1121F48
:10511000002AFBD170470000014908607047000079
:10512000F80000202DE9FF5F82B00021DDE90430A6
:10513000020DDDF840B0034318D044F61050A2F23F
:10514000FF3242431514119801281FD0A5EB0B0024
:10515000401C5FEA000A4FF000064E4FDFF838911E
:10516000B046504615D5CAF1000413E01198012449
:105170004AA3012801D16FEA0B010298119AC0E9F4
:105180000031C0E9024206B0BDE8F09FCBF100005B
:10519000DFE704460021404A491842EB0450CDE9BC
:1051A000001012E0E00707D032463B464046494631
:1051B000FFF774FA8046894632463B461046194648
:1051C000FFF76CFA06460F466410002CEAD1DDE9C1
:1051D0000401DDE90023BAF1000F06DAFFF75EFAF9
:1051E00042464B46FFF75AFA05E0FFF7C9FA424636
:1051F0004B46FFF7C5FA04460E460022284BFFF740
:105200009BFC03D84FF0FF30014607E00022254BFE
:1052100020463146FFF79BF9FFF75DFC102409E0BB
:10522000002C0ADB0A220023FFF75EFB039B3032CF
:105230001A55641E50EA0102F2D1641C039AC4F1AB
:1052400011031444119A012A03D0012208430DD1FD
:105250000AE0084304D000204FF0110B119072E7D0
:10526000A3EB0B056D1E0DE05B4504DD4FF0000266
:1052700005F1010504E003DA4FF00002A5F1010594
:10528000002AECD002981199C0E90231C0E900452A
:1052900079E70000000014400000F03F30000000FB
:1052A0000000F0430000E03F2DE9FF4F95B09A4623
:1052B000884606460025EEE1252877D100242746BA
:1052C000F94A0121039400E0044316F8013F203B12
:1052D00001FA03F01042F7D130782A2811D06FF08C
:1052E0002F033078A0F13002092A16D8039A44F02F
:1052F000020402EB820203EB42021044761C03908C
:10530000EFE758F8042B0392002A03DA504244F4E2
:105310000054039044F00204761C30782E2816D1F5
:1053200016F8010F44F004042A280DD06FF02F0264
:105330003078A0F13003092B09D807EB870302EB83
:105340004303C718761CF3E758F8047B761C3078C3
:105350006C280FD006DC4C2817D068280DD06A289E
:1053600014D104E0742810D07A280FD10DE044F451
:1053700000140AE044F4801401E044F4401472780C
:10538000824202D104F58014761C761C307866289F
:105390000BD013DC582877D009DC002875D04528BD
:1053A000F6D04628F4D047281AD193E118E06328B4
:1053B00035D0642879D0652812D18BE1702873D05C
:1053C00008DC6728F1D069286FD06E280DD06F28CF
:1053D00006D1ACE073282CD0752874D0782853D02F
:1053E0005246179990476D1C54E1C4F302500228AD
:1053F00009D003280DD0D8F8001004280DD00D6076
:1054000008F1040846E1D8F80010EA17C1E9005293
:10541000F6E7D8F800100D80F2E70D70F0E718F805
:10542000041B8DF8001000208DF80100EB460120D0
:1054300003E058F804BB4FF0FF3061074FF0000164
:1054400002D40DE009F101018946B9420FDA814524
:10545000F8DB1BF809100029F4D108E009F101017B
:1054600089468142FADB1BF809100029F6D103981E
:105470005346A0EB090721463846179A00F080FAF8
:10548000284400EB090507E044E008E10DE01BF8C3
:10549000010B524617999047B9F10109F7D25346CB
:1054A00021463846179AF2E039E00A21C4F3025245
:1054B0004FF0000B0091022A06D058F8040BC117D8
:1054C000032A09D00AE023E008F1070020F00702D0
:1054D000F2E80201904605E000B2C117042A01D1AA
:1054E00040B2C117002906DA0A460021404261EBAA
:1054F00002012D2202E0220504D52B228DF8042082
:10550000012203E0E20701D02022F7E7914657E0AD
:105510000A2100E010214FF0000B00910BE0102158
:105520004FF0000B44F004040827009103E008202A
:105530004FF0000B0090C4F30252022A05D058F835
:10554000040B0021032A08D008E008F1070020F02E
:105550000702F2E80201904603E080B2042A00D17B
:10556000C0B24FF0000922072AD53278702A07D03E
:10557000DDF800C08CF0100C5CEA0B0C05D00EE0DE
:1055800040228DF80420012208E050EA010306D0F1
:1055900030238DF804308DF8052002229146009BBF
:1055A00083F0080353EA0B030AD150EA010201D148
:1055B000620705D530228DF804204FF001097F1EC7
:1055C0003278582A04D039A20C920CAA02920BE02D
:1055D0003BA2F9E75B46009AFFF786F90C9B9B5CC0
:1055E000029A521E0292137050EA0102F2D10298FE
:1055F00004A9081A00F1200B600702D524F48034B6
:1056000000E001275F4502DDA7EB0B0000E0002072
:1056100000EB0B01009003984944401A0390E0030B
:1056200006D453462146179A039800F0A9F9054479
:10563000002706E001A85246C05D179990476D1CEF
:105640007F1C4F45F6DBE0030CD553462146179AE5
:10565000039800F095F9054404E03020524617996C
:1056600090476D1C0099481E00900029F5DC08E069
:105670000298029952460078491C02911799904766
:105680006D1CBBF10001ABF1010BF1DC5BE100F043
:1056900065F90544761C307800287FF40DAE19B00A
:1056A0002846BDE8F08F0000092801003031323370
:1056B000343536373839616263646566000000004E
:1056C0003031323334353637383941424344454638
:1056D00000000000600700D4062708F1070020F052
:1056E0000700F0E80223804603F0004C5FEA0C005C
:1056F00001D097A009E0200501D596A005E0E007BC
:1057000001D095A001E0AFF24C001390307823F067
:10571000004365280CD006DC452809D046281DD05A
:1057200047287FD13BE0662818D067287AD136E039
:105730000021112F01DB112000E0781CCDE90001D0
:1057400004A90CA8FFF7EEFCDDE90D010C9A4FF05F
:10575000000B07F10109109200914EE04FF000405C
:105760000097CDE9011004A90CA8FFF7DBFCDDE9E7
:105770000D020C9B0F994FF0000B91461093009275
:1057800011B9791C00EB0109B7EB090003D4C0F192
:10579000FF3B07F10109A9EB0700019042E0012F4F
:1057A00000DA01270021112F01DD112000E0384629
:1057B000CDE9000104A90CA8FFF7B4FCDDE90D0157
:1057C0000C9A00914FF0000BB946109221070FD4AC
:1057D000009A4A4503DA914601E0A9F10109B9F1BD
:1057E000010F05DD109AA9F10101515C3029F4D0B7
:1057F000B84202DA10F1040F03DA0121CDE90110F9
:1058000010E0002803DC8344A9EB000102E0411C06
:10581000494500DD8946A0EB0B00401C01904FF08C
:1058200000400290200705D40198484502DB4FF064
:10583000FF30019000208DF84B0002980DF14B07CE
:10584000B0F1004F25D002200C902B200D90029833
:1058500000280CDA404202902D200D9007E00A212A
:105860000298FFF72BF83031029007F8011D0C99D0
:10587000481E0C900029F2DC02980028EFD1791E16
:105880000D980870307800F0200040F0450007F8CF
:10589000020D11A8C01BC01D02901398007800B122
:1058A000012000EB0901019801EBE071029801442D
:1058B0000398401A401E0390E00306D45346214645
:1058C000179A039800F05CF805441398007818B113
:1058D0005246179990476D1CE00323D55346214645
:1058E000179A039800F04CF805441BE0BBF1000F39
:1058F00007DB0098584504DD1098179910F80B0045
:1059000001E0179930205246904701980BF1010BA6
:10591000401E05F10105019004D12E205246179931
:1059200090476D1CB9F10001A9F10109DEDC05E029
:1059300017F8010B5246179990476D1C0299481EA3
:1059400002900029F4DC53462146179A03989EE6FC
:105950002D0000002B000000200000002DE9F04188
:10596000044600251E461746880404D405E039463F
:105970002020B0476D1C641EF9D52846BDE8F08193
:105980002DE9F041044600251E469046C80301D586
:10599000302700E02027880404D505E0414638463A
:1059A000B0476D1C641EF9D52846BDE8F0810000A3
:1059B00000000000000000000102030406070809BF
:1059C000A0860100400D0300801A060000350C007F
:1059D00040420F0080841E0000093D0000000000CE
:1059E0000102030401020304060708090102040678
:1059F000080A0C1020202020202020200100020076
:105A00000400060008000A000C00100020004000FE
:105A1000800000010001000100010001A0860100DA
:105A2000400D0300801A060000350C0040420F00B4
:105A300080841E0000093D0004FA97999999D93F86
:105A4000AF788E1DC571CC3F9FC678D0099AC33FF1
:105A5000935555555555E53F599322942449D23FC6
:105A6000DE03CB966446C73F44523EDF12F1C23F8D
:105A70000000000000000000985A0008000000200C
:105A8000FC000000F8500008945B0008FC000020B7
:105A9000841900000851000800F36F0600000000A0
:105AA0000000000000100140008000000100000024
:105AB000010000000F000000010000000010014084
:105AC0000040000001000000010000000F00000085
:105AD0000200000000100140002000000100000052
