:020000040800F2
:10000000281A0020610100089D2D00089F2D00087E
:10001000A32D0008A72D0008AB2D0008000000004C
:10002000000000000000000000000000AF2D0008EC
:10003000B12D00080000000077010008B32D000872
:100040007B0100087B0100087B0100087B010008A0
:100050007B0100087B0100087B010008EF2D0008F0
:10006000FB2D0008072E00087B0100087B0100081B
:100070007B0100087B0100087B0100087B01000870
:100080007B0100087B0100087B010008DF2D0008D0
:100090007B0100087B0100087B0100087B01000850
:1000A000E12D0008E32D00087B0100087B0100081A
:1000B0007B0100087B0100087B0100087B01000830
:1000C0007B0100087B0100087B0100087B01000820
:1000D0007B0100087B0100087B010008C12D00089E
:1000E0007B0100087B0100087B0100087B01000800
:1000F000ED2D00087B0100087B010008CB2D0008D6
:10010000D52D00087B0100087B0100087B01000859
:100110007B0100087B010008BF2D00087B0100085F
:100120007B0100087B0100087B0100080000000043
:100130007B0100087B0100087B0100087B010008AF
:100140007B0100087B010008DFF810D003F0B4FB4E
:1001500000480047D5370008AFF30080281A002078
:100160000648804706480047FEE7FEE7FEE7FEE751
:10017000FEE7FEE7FEE7FEE7FEE7FEE78702000890
:100180004901000830B50020002100230022A14CC5
:10019000246844F480349F4D2C6000BF9D4C24683B
:1001A000C4F340425B1C12B9B3F5005FF6D1994C21
:1001B0002468C4F340421AB9974C984D2C6030BD66
:1001C000944CE46944F08054924DEC61944C246862
:1001D00004F4C064B4F5806F05D1914C246844F4F4
:1001E000C0648F4D2C608F4C246824F003048D4D27
:1001F0002C602C46246844F003042C60854C646811
:10020000844D6C602C46646844F400546C602C4649
:10021000646844F4A0646C602C466468824D2C4091
:100220007C4D6C602C46246C24F003042C642C461A
:10023000606840F48030216C40F4003000BF7B4C9B
:1002400020432C4660602164246844F080742C6054
:1002500000BF704C246804F00074002CF9D06D4C81
:10026000646824F003046B4D6C602C46646844F0B1
:1002700003046C6000BF674C646804F00C040C2C31
:10028000F9D100BF9BE710B56948006840F47000E1
:10029000674908605F48406A40F004005D49486271
:1002A00008464068634908405A4948600846006863
:1002B00061490840574908600846006820F48020DA
:1002C0000860084640685D490840524948604FF45C
:1002D000E040C86240100863002048630864584842
:1002E00088600846C06940F08050C8610846C0690F
:1002F00020F08050C8614B48006840F090004949A8
:1003000008600846006800F4807020B10846006864
:1003100020F400700860FFF735FF4FF0006044499B
:100320008039086010BD70B5002100200023002432
:100330000022384D6D6805F00C01364D6D6AC5F32D
:10034000021231B104290AD008290CD00C294DD150
:100350000DE03C4D55F82250304E35604CE03A4DA2
:100360002E4E356048E0394D2C4E356044E0294D25
:100370006D68374E05EA0600264D6D6805F480333A
:10038000244D2D6C05F0020400F000651DB9022516
:1003900005EB904004E04FF4F875C5EB9045681C00
:1003A00073B91C4D2D6C05F0020525B1274D454351
:1003B0001A4E356012E0244D4543184E35600DE06D
:1003C000144D6D6805F4003525B1134D4543134EAA
:1003D000356003E01D4D4543104E3560022C04D1BD
:1003E0000E4D2D686D080D4E356005E0154D55F824
:1003F00022500A4E356000BF00BF064D6D68C5F340
:100400000315144E715D054D2D68CD40034E3560CA
:1004100070BD00000010024000093D0000000020F7
:100420000070004000200240FFFFC0F700002808D5
:1004300088ED00E000C0FFF8FFFFF6FEFFFF0007B9
:100440000080BF043C3900080024F40000127A0048
:1004500000003C082C39000831490143314A116041
:10046000704770B5002100230F22C47804B32D4CCF
:10047000246804F4E064C4F5E064210AC1F10403D3
:10048000CA40447804FA03F18478144021430901F6
:10049000254C0678A155047804F01F050124AC40D2
:1004A00005786D11AD0005F1E025C5F8004109E0C2
:1004B000047804F01F050124AC401C4D0678761129
:1004C00045F8264070BD1A4A0A400243154B1B1FCF
:1004D0001A60704739B1134A121D12680243114B5A
:1004E0001B1D1A6006E00F4A121D126882430D4B55
:1004F0001B1D1A607047042808D14FF0E0210969DC
:1005000041F004014FF0E022116107E04FF0E021DB
:10051000096921F004014FF0E022116170470000E9
:100520000000FA050CED00E000E400E080E100E0EE
:1005300080FFFF1F10B50121480701F02AF80021B4
:100540004FF0005001F025F810BD10B50021002239
:10055000454B196840F6FE739943D0E900342343B4
:1005600084682343C46843EA040211433E4B196084
:1005700010BD00210160416081600221C1607047AF
:1005800030B13949096841F00101374A116005E08D
:100590003549096821F00101334A1160704730B1D3
:1005A0003149096841F480512F4A116005E02E4914
:1005B000096821F480512C4A1160704740B12A49E2
:1005C000091D096841F00101274A121D116007E069
:1005D0002549091D096821F00101234A121D1160F6
:1005E000704740B12049091D096841F001011E4AC8
:1005F000121D116007E01C49091D096821F0010165
:10060000194A121D1160704708B500220092164A5F
:1006100012680092009A22F0C002009219B1009A6A
:100620000243009203E0009A22F0C00200920E4BB7
:10063000009A1A6008BD08B5002200920A4A00928A
:1006400000F10802009B1A440092009A116008BD54
:1006500008B5002000900448009000982C300090CD
:100660000098006880B208BD0074004000204A492C
:100670000860091D0860091D0860091D08606FF009
:100680007040454914310860704700214249827921
:10069000002A3AD00A46126803689A430B461A6049
:1006A0000A1D126803689A430B1D1A6002791144EF
:1006B0000A6803681A430A60374A083212680368F6
:1006C0009A43354B08331A601A1D126803689A431F
:1006D000314B0C331A604279102A0ED11A1F12685E
:1006E00003681A432C4B08331A601A1D12680368FA
:1006F0001A43294B0C331A600DE027494279114403
:100700000A6803681A430A6005E0027911440A681E
:1007100003689A430A6070470021016001710C214F
:1007200041710021817170471B49103109680143F3
:10073000194A10321160704701460020164A1432DF
:1007400012680A400AB1012000E0002070471249F7
:100750001431086070470146002000220E4B1B68D0
:1007600003EA01020C4B14331B680B4013B10AB1AE
:10077000012000E0002070470749143108607047ED
:100780000549183109680021034A183211601146E1
:100790000968014311607047000401402DE9F041F0
:1007A00004460025002600274FF6FF78FE488442C5
:1007B00008D10121042000F0DFFE0021042000F018
:1007C000DBFE25E0F948844208D10121082000F031
:1007D000D3FE0021082000F0CFFE19E0F448844247
:1007E00008D10121102000F0C7FE0021102000F0E8
:1007F000C3FE0DE0EF48844208D10121202000F023
:10080000BBFE0021202000F0B7FE01E0BDE8F08132
:1008100069E00120A84000EA0806002E62D0E64800
:10082000A90850F82170A807010F0F208840074041
:10083000DD48844201D100200AE0DC48844201D135
:10084000012005E0DA48844201D1022000E00320C3
:10085000A907090F8840B84221D1D8480068B043A1
:10086000D6490860081D0068B043091D0860081DCE
:100870000068B043091D0860081D0068B043091DE9
:100880000860A807010F0F2000FA01F7CA48A9085D
:1008900050F82100B843C849AA0841F8220020684E
:1008A0006A00032191408843206005F0080038B1B8
:1008B000606A6907CA0E0F2191400843606206E032
:1008C000206A6907CA0E0F219140084320626168BF
:1008D0000120A84081436160E0686A0003219140E3
:1008E0008843E0606D1C28FA05F0002891D100BF14
:1008F0008CE710B50121084600F03EFE00210120E2
:1009000000F03AFE10BDF0B503460025002000249B
:1009100000220026E3E00F884FF0010C0CFA02FCE5
:1009200007EA0C06002E6FD055008F68022F07D003
:100930008F68122F04D08F6817B18F68032F25D1CD
:1009400002F008078FB1586A57074FEAD76C0F2794
:1009500007FA0CF7B8434FEA427C4FEADC6CCF68E9
:1009600007FA0CF73843586210E0186A57074FEA45
:10097000D76C0F2707FA0CF7B8434FEA427C4FEACF
:10098000DC6CCF6807FA0CF7384318621C680F7AE2
:1009900007F00F000327AF40BC4300FA05F73C43C4
:1009A0001C60DC680F7907F003000327AF40BC43ED
:1009B00000FA05F73C43DC600F7A07F003076FB1DC
:1009C0008F68032F0AD0DC6A8F7807F003000327B3
:1009D000AF40BC4300FA05F73C43DC62986801274E
:1009E0009740B843CF7807F00107974038439860A5
:1009F0000F79022F09D19F6A4FF0010C0CFA02FC0B
:100A000047EA0C079F620BE068E00F79012F07D1DE
:100A10009F694FF0010C0CFA02FC47EA0C079F613A
:100A20008F68012F08D08F68022F05D08F68112F93
:100A300002D08F68122F09D1586801279740B84318
:100A40000F7AC7F300179740384358608F6807F054
:100A50008057002F42D0594F386801279740B8433C
:100A60008F6807F48037B7F5803F02D101279740A0
:100A70003843524F38603F1D386801279740B843CC
:100A80008F6807F40037B7F5003F02D10127974080
:100A900038434A4F3F1D38603F1D38680127974053
:100AA000B8438F6807F48017B7F5801F02D101277C
:100AB00097403843414F083738603F1D3868012759
:100AC0009740B8438F6807F40017B7F5001F02D1AD
:100AD000012797403843394F0C373860521C0F8834
:100AE0001741002F7FF417AFF0BD4FF6FF71018063
:100AF0000021C17081600F21C160002101718170EE
:100B000070470246002013690B400BB1012000E042
:100B1000002070470146086980B2704702460020F5
:100B200053690B400BB1012000E0002070470146E3
:100B3000486980B270478161704781617047816206
:100B400070470AB1816100E081627047416170477E
:100B50004FF480320A43C261C161C261C269C26995
:100B60007047F0B503461546002200200BB90E4E23
:100B700008E0012B01D10D4E04E0022B01D10C4EF7
:100B800000E00C4E344601F00806CEB101F0070239
:100B9000606A97000F26BE40B043960005FA06F63D
:100BA0003043606218E0000000080140000C014082
:100BB0000010014000140140040001400004014005
:100BC00001F00702206A97000F26BE40B04396004E
:100BD00005FA06F630432062F0BD70B502460020EB
:100BE00000240AB93E4D08E0012A01D13D4D04E040
:100BF000022A01D13C4D00E03C4D2B4601F0080596
:100C000055B101F00704586AA6000F25B540A84366
:100C100040F00300586209E001F00704186AA600DA
:100C20000F25B540A84340F00300186270BD30495D
:100C3000C861704730B502462E4B8C1053F82430F3
:100C40008C07250F0324AC40A3432A4C8D1044F895
:100C5000253023468C1053F824308C07240F02FAD9
:100C600004F41C43234B8D1043F8254030BD0A4645
:100C70000021204B1B1F196801238340994302FA6E
:100C800000F319431B4B1B1F1960704702460020DD
:100C9000092A11D1174B1B1F186820F40070112965
:100CA00002D140F4007003E020F0F00040EA0110AF
:100CB000104B1B1F186011E0082A0FD10D4B1B1F92
:100CC000186820F48070102902D140F4807002E08E
:100CD00020F00F000843074B1B1F186070470000EF
:100CE00000080140000C01400010014000140140C8
:100CF000000020420400014010B50121C80700F0A7
:100D000048FC00214FF0004000F043FC10BD0021E2
:100D10000160817101214171002101710421C171C2
:100D2000704718B5514B03EB8002136800930428F9
:100D300005D1009B23F080730C6823430093009B34
:100D400023F038038C79234300934B79012B04D192
:100D5000009B43F40043009303E0009B23F4004313
:100D600000930B79012B04D1009B43F48033009353
:100D700003E0009B23F480330093009B23F00603E1
:100D8000CC7923430093009B136018BD0246374B78
:100D900003EB820021B1036843F00103036003E029
:100DA000036823F001030360704708B52F4B03EB82
:100DB000800213680093009B23F038030B430093D9
:100DC000009B136008BD08B5284B03EB8002136835
:100DD0000093009B23F460130B430093009B13606C
:100DE00008BD08B5214B03EB800213680093009BFC
:100DF00023F4C0230B430093009B136008BD08B588
:100E00001A4B03EB800213680093009B23F4E0630A
:100E10000B430093009B136008BD08B5134B03EB15
:100E2000800213680093009B23F0C0030B430093E0
:100E3000009B136008BD01460C4800EB810210685E
:100E4000C0F3803070470246084B03EB820021B1AB
:100E5000036843F40063036003E0036823F4006362
:100E6000036070470149086270470000002000409D
:100E7000F848406A40F00400F64948620846406875
:100E8000F5490840F349486008460068F3490840BE
:100E9000F04908600846006820F480200860084691
:100EA0004068EF490840EB4948604FF4E040C862B1
:100EB00040100863002048630864EA48886070476F
:100EC000E449096821F48031E24A11601146096859
:100ED00021F480211160B0F5803F03D0B0F5802F60
:100EE0000ED106E0DB49096841F48031D94A11602E
:100EF00007E0D849096841F4A021D64A116000E012
:100F000000BF00BF704710B501460022002300203B
:100F10004A11012A02D1CF4C236806E0022A02D1ED
:100F2000CC4C236A01E0CB4C636A01F01F02012420
:100F300094401C400CB1012000E0002010BD38B5E9
:100F4000002000900024002500BF3120FFF7DBFFC8
:100F500005460098401C00900098B0F5005F01D055
:100F6000002DF2D03120FFF7CEFF08B1012400E0C0
:100F70000024204638BDB749096821F00101B54A6F
:100F80001160012805D11146096841F00101116085
:100F900000E000BF00BF704738B50020009000247B
:100FA000002500BF2120FFF7AEFF05460098401C3A
:100FB00000900098B0F5A06F01D0002DF2D0212054
:100FC000FFF7A1FF08B1012400E00024204638BD4E
:100FD000014600209F4A106820F07C0040EA810012
:100FE00010607047A049086070479A4A526A22F020
:100FF0007002984B5A621A46526A0A435A6238B1D2
:1010000004280CD11A46526A42F004025A6207E0E0
:10101000904A526A22F004028E4B5A6200E000BFEE
:1010200000BF704738B5002000900024002500BFA5
:101030006320FFF768FF05460098401C0090009869
:10104000B0F5A06F01D0002DF2D06320FFF75BFF59
:1010500008B1012400E00024204638BD01460020EC
:101060007C4A506A20F4FF0040EAC1305062704769
:101070007E490860704730B50B46144600210022B7
:10108000744D69682A6C7A4D294022F0030208B138
:10109000012804D1194340EA04052A4303E040EA49
:1010A0000305294322436B4D69602A6430BD6E49B4
:1010B0000866704701460020664A506820F0030029
:1010C0000843506070476348406800F00C00704768
:1010D000014600205F4A506820F0F000084350604D
:1010E0007047014600205B4A506820F4E0600843E6
:1010F0005060704701460020564A506820F4605006
:1011000040EAC1005060704731B1524A926842EAE9
:101110000022504B9A6005E04E4A926822EA002273
:101120004C4B9A6070475049D831086041084E4A8C
:10113000C2F8DC10704701460020464AD06A20F011
:1011400000500843D062704701460020414AD06AEF
:1011500020F0F8500843D0627047024600203D4B13
:10116000D86A20F4003020F4F83010430843D862E5
:10117000704702460020374BD86A20F4F87009B156
:10118000104302E0104320F48070324BD862704765
:10119000014600202F4AD06A20F00F000843D06299
:1011A0007047024600202B4B186B20F4003020F4CF
:1011B0007840104308431863704730B12549096BE4
:1011C00041F48021234A116305E02249096B21F48F
:1011D0008021204A1163704710B5024600201D4B44
:1011E000186B20F400701043186329B11B6B43F097
:1011F0008003184C236305E0164B1B6B23F0800320
:10120000144C236310BD1349096B21F48071114AFA
:1012100011631146096B01431163704729B10D4AEF
:10122000526B02430B4B5A6304E00A4A526B8243EF
:10123000084B5A63704731B1064A526B42EA0012BA
:10124000044B5A6305E0034A526B22EA0012014B39
:101250005A6370470010024000C0FFF8FEFFF6FE20
:10126000FFFF00F70080BF040000424288044242B2
:10127000FFFFC0F729B1EF4AD2690243ED4BDA61B3
:1012800004E0EC4AD2698243EA4BDA61704710B558
:10129000044601210807FFF7EDFFE748006840F426
:1012A0008070E5490860E348406B20F00700E149A1
:1012B00048630846406B2043486310BDDD48406BDF
:1012C00000F007007047DB49496B21F01801D94A4B
:1012D00051631146496B014351637047D548406BD8
:1012E00000F01800704729B1D24A526C0243D14B2A
:1012F0005A6404E0CF4A526C8243CE4B5A64704722
:1013000029B1CC4A526C0243CA4B5A6404E0C94A20
:10131000526C8243C74B5A647047C649496C0143BB
:10132000C44A516470470021C44A11686FF3080130
:10133000B0F5007F02DB40F2FF1001E0C0F30800CF
:101340000143BE4A11607047F0B505460E460027BE
:1013500001210807FFF78EFFB748006840F480704E
:10136000B5490860B348046A24F00D0465B1012D45
:1013700002D0042D18D112E044F00104AD480462FB
:101380003046FFF7D0FF10E000BFAA4804620027F4
:1013900000E07F1C40F2FF708742FAD305E044F082
:1013A0000404A448046200E000BF00BFF0BDA449EB
:1013B000086070479F49096A21F440719D4A116293
:1013C0001146096A0143116270479A48006A00F4A5
:1013D000407070479A494439086070479549096AD6
:1013E00021F02001934A11621146096A01431162FA
:1013F00070479048006A00F020007047F0B5002167
:1014000000BF00230026002400258A4F7F68DFF8F4
:1014100034C207EA0C03874F7F6807F48036854F94
:101420007F6AC7F3021503F000671FB9022707EBB5
:10143000934304E04FF4F877C7EB93477B1C66B9FE
:101440007C4F3F6C07F001071FB17F4F03FB07F292
:101450000FE07E4F03FB07F20BE0764F7F6807F447
:1014600000371FB17A4F03FB07F202E0764F03FB10
:1014700007F2704F3F6C07F0020707B152086D4F3B
:101480007F6807F00C0131B1042909D008290AD07E
:101490000C290DD10AE06F4F57F8257007600CE05A
:1014A0006A4F076009E0684F076006E0026004E0E9
:1014B000684F57F82570076000BF00BF5D4F7F6819
:1014C00007F0F0010909644F7C5C0768E74047605A
:1014D000584F7F6807F4E061090A5F4F7C5C4768FA
:1014E000E7408760534F7F6807F46051C90A5A4F3D
:1014F0007C5C4768E740C7604E4FFF6A07F00F010A
:10150000564F7C5C4768B7FBF4F74761494FFF6A69
:1015100007F4F871090901F00F07DFF844C13CF83E
:101520001740B2FBF4F70761F0BD29B1414A526997
:101530000243404B5A6104E03E4A526982433D4BAC
:101540005A61704729B13B4A92690243394B9A610B
:1015500004E0384A92698243364B9A61704729B158
:10156000344A926A0243334B9A6204E0314A926AE7
:101570008243304B9A62704729B12E4AD2680243A7
:101580002C4BDA6004E02B4AD2688243294BDA60A4
:10159000704729B1274A12690243264B1A6104E0B9
:1015A000244A12698243234B1A6170472449403907
:1015B000086070472B49C864704721497439086036
:1015C000704700201B49096A01F0100109B1012090
:1015D00000E00020704701460020164A506820F0C5
:1015E000704008435060704701460020114A50681F
:1015F00020F0E06040EA0160506070470D48406AAA
:1016000040F080700B4948620846406A20F08070C4
:101610004862704701460020064A92680A400AB1B3
:10162000012000E000207047024989680143014A17
:1016300091607047001002400070004008180040A0
:101640008004424200003C0800127A000024F400AA
:1016500000093D0098390008583900086839000829
:10166000783900080000424210B50446FE48844222
:1016700008D10121C014FFF77FFF0021E014FFF71C
:101680007BFF5EE0B4F1804F08D101210846FFF7EF
:1016900080FF00210120FFF77CFF52E0F3488442E5
:1016A00008D101210220FFF774FF00210220FFF77B
:1016B00070FF46E0EE48844208D101210420FFF784
:1016C00068FF00210420FFF764FF3AE0E948844204
:1016D00008D101210820FFF75CFF00210820FFF757
:1016E00058FF2EE0E448844208D101211020FFF782
:1016F00050FF00211020FFF74CFF22E0DF4884421A
:1017000008D101212020FFF744FF00212020FFF70E
:1017100040FF16E0DA48844208D101214014FFF767
:101720002BFF00216014FFF727FF0AE0D548844211
:1017300007D101214015FFF72CFF00216015FFF7AD
:1017400028FF10BD0A4600210168C74B984211D0FE
:10175000CB4B98420ED0B0F1804F0BD0C34B984288
:1017600008D0C34B984205D0C24B984202D0C54B1B
:10177000984203D121F0700153881943BE4B98421F
:1017800006D0BE4B984203D021F44071D388194350
:1017900001609388838513880385B34B984202D0F8
:1017A000B74B984201D1137A0386012383820168E3
:1017B000AD4B984211D0B24B98420ED0B0F1804F51
:1017C0000BD0AA4B984208D0A94B984205D0A94B00
:1017D000984202D0AB4B984206D1537A13B141F4F0
:1017E000006101E021F40061A64B984214D1937A84
:1017F00013B141F4805101E021F48051D37A13B147
:1018000041F4005101E021F40051137B13B141F484
:10181000804101E021F48041934B98420ED0984BD7
:1018200098420BD0B0F1804F08D0904B984205D031
:101830008F4B984202D0934B984206D1537B13B101
:1018400041F4004101E021F4004101604168B0F140
:10185000804F02D0864B984206D1937B13B141F45E
:10186000807101E021F480714160704730B500243F
:1018700000220023056A25F001050562026A43681B
:10188000048B4FF68F752C404FF6FC752C400D885D
:101890002C4322F002020D892A434D882A43724DBF
:1018A000A84202D0764DA8420FD122F008024D89FD
:1018B0002A4322F004028D882A4323F4807323F400
:1018C00000738D892B43CD892B4343600483CD88DE
:1018D0008586026230BD70B5002400220023056AAF
:1018E00025F010050562026A4368048B48F6FF750F
:1018F0002C404FF6FF452C400D884FF6FF7606EA48
:1019000005252C4322F020020D8942EA05124D885C
:1019100042EA0512544DA84202D0594DA84213D1B3
:1019200022F080024D8942EA051222F040028D88A1
:1019300042EA051223F4806323F400638D8943EAAD
:101940008503CD8943EA850343600483CD880587F9
:10195000026270BD30B5002400220023056A25F420
:1019600080750562026A4368848B4FF68F752C4040
:101970004FF6FC752C400D882C4322F400720D8923
:1019800042EA05224D8842EA0522374DA84202D09C
:101990003B4DA84213D122F400624D8942EA052250
:1019A00022F480628D8842EA052223F4805323F4D6
:1019B00000538D8943EA0513CD8943EA051343603B
:1019C0008483CD888587026230BD70B500220023F4
:1019D0000024056A25F480550562036A4468828BF9
:1019E00048F6FF752A404FF6FF452A400D884FF60E
:1019F000FF7606EA05252A4323F400530D8943EABE
:101A000005334D8843EA0533174DA84202D01C4DDB
:101A1000A84204D124F480448D8944EA85144460AA
:101A20008283CD88A0F84050036270BD30B5002499
:101A300000220023056A25F480350562026A4368A6
:101A4000B0F854404FF68F752C400D882C4322F48B
:101A500000320D8942EA05424D8842EA0542024DB4
:101A6000A84213D0064D0FE0002C014000040040B6
:101A700000080040000C004000100040001400402E
:101A800000340140003C0040A84204D123F48033DC
:101A90008D8943EA05234360A0F85440CD88A0F81F
:101AA0005850026230BD70B5002400220023056A40
:101AB00025F480150562026A4368B0F8544048F680
:101AC000FF752C400D884FF6FF7606EA05252C435E
:101AD00022F400120D8942EA05524D8842EA05526D
:101AE000FB4DA84202D0FB4DA84204D123F4802331
:101AF0008D8943EA85234360A0F85440CD88A0F83F
:101B00005C50026270BD828B4FF2FF331A408283B9
:101B1000828B4FF6FF7303EA01231A4382837047D7
:101B2000F0B50C461546002200210026076A27F46E
:101B300080570762828B016A260340F6FF473A40CE
:101B40004FF6FF7707EA05273A434FF6FF7707EA94
:101B500003373A43DE4FB84211D0DE4FB8420ED0C1
:101B6000B0F1804F0BD0DC4FB84208D0DB4FB84209
:101B700005D0DB4FB84202D0DA4FB84205D121F48C
:101B8000005146F48057394304E021F4005144F4F5
:101B90008057394382830162F0BD828B4FF6F37325
:101BA0001A408283828B0A4382837047F0B50C46C9
:101BB0001546002200210026076A27F48077076275
:101BC000828B016A26024FF60C773A404FF6FF7778
:101BD00007EA03172F433A43BD4FB84211D0BD4F18
:101BE000B8420ED0B0F1804F0BD0BB4FB84208D0F6
:101BF000BA4FB84205D0BA4FB84202D0B94FB84236
:101C000005D121F4007146F48077394304E021F4D2
:101C1000206144F48077394382830162F0BD028BF6
:101C20004FF2FF331A400283028B4FF6FF7303EA31
:101C300001231A4302837047F0B50C461546002273
:101C400000210026076A27F010070762028B016A4D
:101C5000260140F6FF473A404FF6FF7707EA033781
:101C60003A434FF6FF7707EA05273A43984FB842C1
:101C700011D0984FB8420ED0B0F1804F0BD0964F94
:101C8000B84208D0954FB84205D0954FB84202D01F
:101C9000944FB84205D121F0200146F01007394396
:101CA00004E021F0A00144F01007394302830162EF
:101CB000F0BD028B4FF6F3731A400283028B0A4386
:101CC0000283704770B50C46154600220021066A53
:101CD00026F001060662028B016A4FF60C7632404E
:101CE0004FF6FF7606EA03162E433243784EB04293
:101CF00011D0784EB0420ED0B0F1804F0BD0764E5E
:101D0000B04208D0754EB04205D0754EB04202D0F8
:101D1000744EB04205D121F0020144F00106314376
:101D200004E021F00A0144F001063143028301621C
:101D300070BD70B505460C466548854211D06548B2
:101D400085420ED0B5F1804F0BD06348854208D054
:101D50006248854205D06248854202D0614885428A
:101D600000D100E000BF208850B92389A288618893
:101D70002846FFF7A7FFE1882846FFF79AFF25E0EE
:101D8000208804280AD12389A28861882846FFF781
:101D900053FFE1882846FFF742FF17E02088082814
:101DA0000AD12389A28861882846FFF7FFFEE188CF
:101DB0002846FFF7F2FE09E02389A28861882846B9
:101DC000FFF7AEFEE1882846FFF79DFE70BD2DE9C6
:101DD000F04105460C4600260127608808B9022616
:101DE00000E00026A088012801D1022700E0012799
:101DF0002088A0B92389A28861882846FFF762FF5E
:101E0000E1882846FFF755FF23893A4631462846A0
:101E1000FFF712FFE1882846FFF701FF13E023894F
:101E2000A28861882846FFF707FFE1882846FFF768
:101E3000F6FE23893A4631462846FFF743FFE188FC
:101E40002846FFF736FFBDE8F08110B502460B8843
:101E50004C8823438C882343CC8823430C89234319
:101E60004C8923438C892343A2F8443010688B7B30
:101E700013B120F4806001E040F48060CB7B13B1AB
:101E800040F4803001E020F480300B7C13B140F44A
:101E9000003001E020F40030106010BD4FF6FF71FB
:101EA000818000210180C180418001724172817274
:101EB000C1720173417381737047002101804180B9
:101EC0008180C180018141818181C1817047000091
:101ED000002C014000340140000400400008004094
:101EE000000C0040003C00400021018041800121A5
:101EF00081800021C18001817047002101804180E3
:101F00008180C180018141818181704721B1026856
:101F100042F00102026003E0026822F00102026066
:101F2000704731B1B0F8442042F40042A0F8442098
:101F300005E0B0F84420C2F30E02A0F84420704738
:101F40001AB183890B43838102E083898B438381A8
:101F500070478182704741EA0203A0F84830704719
:101F60001AB183890B43838102E083898B43838188
:101F7000704701894FF6F8721140018170470A4697
:101F8000002101894FF68F73194011430181704779
:101F900030B504460D4629462046FFF7F0FF20895C
:101FA00040F00700208130BD2DE9F04104460D4688
:101FB00016461F46602D06D13B460122314620467B
:101FC000FFF73AFE05E03B46012231462046FFF787
:101FD00079FE29462046FFF7D2FF208940F007000E
:101FE0002081BDE8F08130B50C4600210189C9B2DD
:101FF0004FF6FF7505EA0325154325432943018163
:1020000030BD2DE9F04105460E461746984600249E
:1020100043463A4631462846FFF7E5FF2C894FF6FE
:10202000F870044044F007044FF68F70044044F009
:1020300070042C81BDE8F081F0B504460D461646CB
:102040001F463B46324629462046FFF7CCFF2089F3
:1020500040F480402081F0BD0185828270470A46AD
:102060000021016821F07001114301607047F0B553
:102070000C4615461E460021002200230189028BD2
:10208000036A4FF6F877394021434FF6FC473A4050
:1020900040F201173A4323F022034FF6FF7707EA95
:1020A00006172F433B43018102830362F0BD0A46BA
:1020B0000021018B4FF68F73194011430183704744
:1020C0000A460021018B48F6FF7319404FF6FF7353
:1020D00003EA02231943018370470A460021818BDA
:1020E0004FF68F7319401143818370470A460021D0
:1020F000818B48F6FF7319404FF6FF7303EA022302
:102100001943818370470A460021B0F854104FF6F6
:102110008F7319401143A0F8541070470A460021EC
:10212000B0F8541048F6FF7319404FF6FF7303EAF6
:1021300002231943A0F85410704721B1026842F0FD
:102140008002026003E0026822F0800202607047B1
:1021500021B1426842F00402426003E0426822F08A
:1021600004024260704721B1426842F008024260B6
:1021700003E0426822F008024260704721B14268E1
:1021800042F00102426003E0426822F00102426034
:1021900070470A460021018B4FF6F773194011432F
:1021A000018370470A460021018B4FF2FF731940EB
:1021B0004FF6FF7303EA02231943018370470A466F
:1021C0000021818B4FF6F7731940114381837047CB
:1021D0000A460021818B4FF2FF7319404FF6FF73BF
:1021E00003EA02231943818370470A460021B0F8AD
:1021F00054104FF6F77319401143A0F8541070476C
:102200000A460021B0F854104FF2FF7319404FF600
:10221000FF7303EA02231943A0F8541070470A46DB
:102220000021018B4FF6FB73194011430183704766
:102230000A460021018B4FF6FF3319404FF6FF731A
:1022400003EA02231943018370470A460021818B68
:102250004FF6FB7319401143818370470A460021F2
:10226000818B4FF6FF3319404FF6FF7303EA0223C9
:102270001943818370470A460021B0F854104FF685
:10228000FB7319401143A0F8541070470A4600210F
:10229000B0F854104FF6FF3319404FF6FF7303EABE
:1022A00002231943A0F8541070470A460021018BFD
:1022B0004FF67F7319401143018370470A4600218E
:1022C000018BC1F30E014FF6FF7303EA022319439A
:1022D000018370470A460021818B4FF67F731940B6
:1022E0001143818370470A460021818BC1F30E019F
:1022F0004FF6FF7303EA02231943818370470A46AE
:102300000021B0F854104FF67F7319401143A0F824
:10231000541070470A460021B0F85410C1F30E0162
:102320004FF6FF7303EA02231943A0F854107047D5
:102330000A460021016A21F002011143016270473F
:102340000A460021016A21F0080111430162704729
:102350000A460021016A21F0200141EA02110162CE
:1023600070470A460021016A21F0800141EA02110A
:10237000016270470A460021016A21F4007141EAB6
:102380000221016270470A460021016A21F40061BE
:1023900041EA0221016270470A460021016A21F4E4
:1023A000005141EA0231016270470A460021016A88
:1023B00021F4003141EA0241016270470A460021DE
:1023C000016A21F4001141EA02510162704730B5FF
:1023D000002301248C40A3B2046A9C430462046A73
:1023E00002FA01F52C43046230BD30B50023042409
:1023F0008C40A3B2046A9C430462046A02FA01F5A9
:102400002C43046230BD70B50346002000241846FA
:10241000183001258D40ACB21D6AE643B6B2354096
:102420001D6209B1082909D100EB6100056825F09A
:10243000700505600568154305600EE00D1FC5F3C6
:102440004E052844056825F4E045056005684FF60B
:10245000FF7606EA02263543056070BD21B10268A9
:1024600042F00202026003E0026822F0020202600F
:10247000704721B1026842F00402026003E0026882
:1024800022F004020260704721B1426842F08002EB
:10249000426003E0426822F08002426070470268B6
:1024A00022F00802026002680A4302607047426834
:1024B00022F07002426042680A434260704702891B
:1024C0004FF6F8731A40028102890A43028170476D
:1024D00002894FF67F731A40028102890A43028102
:1024E0007047818470478185704781867047018776
:1024F000704781877047A0F840107047A0F85810C7
:102500007047A0F85C107047026822F440720260C5
:1025100002680A43026070470146888E7047014690
:10252000088F70470146888F70470146B1F8400018
:1025300070470146B1F8580070470146B1F85C0099
:1025400070470146888C70470146088D70470146E8
:10255000888D704702460020214B9A4202D0214BC1
:102560009A4206D1136A0B400BB1012016E00020FD
:1025700014E0B2F1804F0BD01B4B9A4208D01B4B9A
:102580009A4205D01A4B9A4202D01A4B9A4205D170
:10259000136A0B400BB1012000E000207047024697
:1025A000002013690B400BB1012000E000207047B0
:1025B000CA430261704730B5024600200023002460
:1025C000156905EA0103958905EA010413B10CB107
:1025D000012000E0002030BDCA43026170470000C6
:1025E000002C01400034014000040040000800407D
:1025F000000C0040003C004010B50446E548844211
:1026000009D101218803FEF7B7FF00214FF4804074
:10261000FEF7B2FF32E0E048844209D101214804CC
:10262000FEF7B7FF00214FF40030FEF7B2FF25E0C0
:10263000DA48844209D101218804FEF7AAFF00216B
:102640004FF48020FEF7A5FF18E0D548844209D159
:1026500001214804FEF790FF00214FF40030FEF7FF
:102660008BFF0BE0CF48844208D101218804FEF79C
:1026700083FF00214FF48020FEF77EFF10BD2DE97F
:10268000F04786B005460F460024A24600BF00BFB3
:102690000026B88900B100BF2E462C8A4CF6FF7088
:1026A0000440F88804432C82AC894EF6F3100440B1
:1026B000B88839890843798908430443AC81AC8AD6
:1026C0004FF6FF400440B8890443AC826846FEF7E9
:1026D00095FEB048864205D0B148864202D0B14846
:1026E000864202D1DDF80CA001E0DDF808A00AEB7B
:1026F000CA0000EB0A1039688900B0FBF1F86420C9
:10270000B8FBF0F004012009642101FB108932209C
:1027100000EB0910B0FBF1F000F00F0004432C8136
:1027200006B0BDE8F0874FF41651016000218180AA
:10273000C18001810C21418100218181704710B548
:1027400002460020108A4FF2FF0318400B884C8885
:1027500023438C882343CC8823431843108210BD25
:102760000021018041808180C180704721B1828930
:1027700042F40052828104E082894DF6FF731A40D0
:1027800082817047F0B50346002400260025002012
:1027900040F66A17B94200D100BF1846C1F342148F
:1027A00001F01F06012707FA06F5012C01D10C30B4
:1027B00004E0022C01D1103000E014301AB1076897
:1027C0002F43076002E00768AF430760F0BD1AB10E
:1027D000838A0B43838202E0838A8B438382704720
:1027E000028A4FF6F0731A400282028A0A4302827A
:1027F000704782894FF2FF731A40828182890A43AF
:102800008281704721B1828942F00202828104E014
:1028100082894FF6FD731A4082817047028A4FF613
:10282000DF731A400282028A0A430282704721B192
:10283000028A42F48042028204E0028A4BF6FF736D
:102840001A4002827047C1F3080282807047014635
:102850008888C0F308007047818941F001018181B7
:102860007047028BD2B20283028B42EA01220283BA
:102870007047028B02F47F420283028B0A43028379
:10288000704721B1828A42F02002828204E0828A6B
:102890004FF6DF731A408282704721B1828A42F07C
:1028A0001002828204E0828A4FF6EF731A4082821D
:1028B000704721B1828A42F00802828204E0828A53
:1028C0004FF6F7731A4082827047828A4FF6FB7385
:1028D0001A408282828A0A438282704721B1828AA8
:1028E00042F00202828204E0828A4FF6FD731A40AF
:1028F0008282704702460020B1F5007F00D100BF00
:1029000013880B400BB1012000E00020704701F458
:102910000072B2F5007F00D100BFCA430280704749
:1029200070B50246002400230025002040F66A16F8
:10293000B14200D100BFC1F3421501F01F030126CF
:1029400006FA03F3012D02D19689334006E0022DE9
:1029500002D1168A334001E0968A33400C120126D8
:1029600006FA04F41688344013B10CB1012000E0DB
:10297000002070BD10B50022002340F66A14A14269
:1029800000D100BF0A1201249440A3B2DC430480AA
:1029900010BD0000003801400044004000480040E5
:1029A000005001400054014010B5044624B1012CF0
:1029B0000FD0022C2BD119E001210820FEF7C2FD17
:1029C00001210820FEF7BEFD01214804FEF7BAFDF3
:1029D0001DE001211020FEF7B5FD01212020FEF7AA
:1029E000B1FD01218804FEF7ADFD10E001210820B2
:1029F000FEF7A8FD01210820FEF7A4FD012110200B
:102A0000FEF7A0FD01218804FEF734FC00BF00BFE3
:102A100010BD1FB504460020009001900290039065
:102A20006846FEF762F824B1012C1AD0022C59D165
:102A30002FE006200390022002900120ADF8000054
:102A40006946A948FDF75FFF01208DF804000220C8
:102A5000ADF80000062003906946A348FDF753FF38
:102A600040E00620039002200290C002ADF8000072
:102A700069469E48FDF747FF01208DF804000420B9
:102A8000ADF800000620039069469948FDF73BFF2A
:102A900028E000200390022002904002ADF80000E0
:102AA00069469148FDF72FFF0520039001208DF81E
:102AB0000400C002ADF8000069468B48FDF723FF13
:102AC00001208DF804000002ADF800000120029002
:102AD00069468648FDF717FF4FF480718348FEF77B
:102AE0002AF800BF00BF1FBD70B586B006460D4670
:102AF000144600200290039004900590019002A8D3
:102B0000FFF711FE3046FFF74FFF3046FFF781FF1A
:102B10000CB900BFFEE726B1012E2FD0022E2CD11A
:102B200059E002950020ADF80C00ADF80E00ADF8AC
:102B300010000C20ADF812000020ADF814002F207A
:102B40008DF8040001208DF8070000208DF80500A5
:102B50008DF8060001A8FDF784FC012240F2255102
:102B60006448FFF70FFE6448046002A96148FFF75C
:102B700086FD01215F48FFF7F9FD59E0029500202D
:102B8000ADF80C00ADF80E00ADF810000C20ADF85B
:102B900012000020ADF8140030208DF80400012050
:102BA0008DF8070000208DF805008DF8060001A8BB
:102BB000FDF757FC012240F225515048FFF7E2FD96
:102BC0004D48446002A94D48FFF759FD01214B488B
:102BD000FFF7CCFD2CE002950020ADF80C00ADF81D
:102BE0000E00ADF810000C20ADF812000020ADF87A
:102BF000140027208DF8040001208DF80700002024
:102C00008DF805008DF8060001A8FDF72AFC0122C9
:102C100040F225513A48FFF7B5FD3748846002A9D4
:102C20003748FFF72CFD01213548FFF79FFD00BF16
:102C300000BF06B070BD2DE9F04104460E461746B0
:102C40000025A84624B1012C05D0022C11D105E0A5
:102C5000DFF8A0800DE0DFF8A4800AE0DFF8A080B4
:102C60004FF480712148FDF76AFF012000F083F8DE
:102C700000BF00BFB8F1000F01D100BFFEE7002583
:102C80000BE0715D4046FFF7DEFD00BF802140464E
:102C9000FFF730FE0028F9D06D1CBD42F1D324B1FE
:102CA000012C03D0022C0BD101E009E008E0012047
:102CB00000F061F84FF480710C48FDF73CFF00BF55
:102CC00000BFBDE8F08170B504460D46E1B2094889
:102CD000FFF7B9FD00BF80210648FFF70BFE002873
:102CE000F9D0204670BD0000000C014000100140EA
:102CF0000014014000500140D40000200054014065
:102D00000048004030B5214800684FF47A72B0FBAB
:102D1000F2F1481EB0F1807F01D301201BE0481E74
:102D20004FF0E022506150170F22002804DB1307F8
:102D30001C0E174B1C5406E013071D0E154B00F01C
:102D40000F04241F1D5500BF00204FF0E0229061AA
:102D500007201061002008B100BFFEE730BD4FF032
:102D6000E020006920F001004FF0E0210861704789
:102D70000948006870470021074A1268111800BF0F
:102D8000054A12688A42FBD9704700000000002003
:102D900000E400E018ED00E004000020704700BFF0
:102DA000FEE700BFFEE700BFFEE700BFFEE770479B
:102DB000704718480068401C164908607047704703
:102DC00010B515498868804710BD10B512490868CC
:102DD000804710BD10B510494868804710BD704746
:102DE000704710B50D490868804710BD704710B591
:102DF0000B4AD0681168884710BD10B5084AD068E2
:102E00005168884710BD10B5054AD0689168884759
:102E100010BD000004000020D4000020B0000020FD
:102E2000F800002010B5002400BF0FE004EB4402BE
:102E3000364B03EBC20202F1080104EB440203EB40
:102E4000C2025068FDF75FFD601CC4B2032CEDDBCD
:102E500010BD044621E004EB44022C4B03EBC202FC
:102E6000118904EB440203EBC2025068FDF763FED4
:102E70004FF4FA70FFF77FFF04EB4402234B03EBA0
:102E8000C202118904EB440203EBC2025068FDF751
:102E900056FE4FF4FA70FFF76EFFDCE770B506469A
:102EA0000D46002400BF2DE004EB4400174911F843
:102EB0003000B04224D16DB904EB44020B4603EB61
:102EC000C202118904EB440203EBC2025068FDF711
:102ED00032FE14E0012D0DD104EB44020B4B03EB49
:102EE000C202118904EB440203EBC2025068FDF7F1
:102EF00026FE04E0022D02D13046FFF7AAFF03E0D0
:102F0000601CC4B2032CCFDB00BF70BD08000020E2
:102F100010B501211020FEF715FB10BD10B5FFF70D
:102F2000F7FF002400BF0FE004EB4402454B03EB26
:102F3000C20202F1080104EB440203EBC202506832
:102F4000FDF7E1FC601CC4B2022CEDDB10BD10B536
:102F500000243C4A11895068FDF7D3FD0446012C3A
:102F600009D13948007930B9012037490871FFF794
:102F7000FFFE354908603448007901281AD1FFF76F
:102F8000F7FE31490968401A0A2813D92D4A1189D8
:102F90005068FDF7B6FD0446012C08D12A49487156
:102FA00008468068401C886028A000F097FC02203A
:102FB0002549087154B924480079022806D129A06E
:102FC00000F08CFC00202049087148711D4A118CCA
:102FD000D069FDF796FD0446012C09D127480079F8
:102FE00030B9012025490871FFF7C2FE2349086066
:102FF00022480079012817D1FFF7BAFE1F49096856
:10300000401A0A2810D90F4A118CD069FDF779FDB2
:103010000446012C05D100201849487118A000F081
:103020005DFC0220154908715CB91448007902283A
:1030300007D118A000F052FC01201049487100206F
:10304000087110BD68000020E00000205354415278
:10305000542F53544F50204B45592D2D3E444F571C
:103060004E0D0A0053544152542F53544F50204B8D
:1030700045592D2D3E55500D0A000000EC00002052
:1030800043432F434357204B45592D2D3E444F5723
:103090004E0D0A0043432F434357204B45592D2DD6
:1030A0003E55500D0A00000010B50121C807FEF77B
:1030B000E1F801210520FEF745FA10BD1FB50020FB
:1030C00000900190029003906846FDF70EFDC0212C
:1030D0000020FDF7A2FE0320029001020020FDF770
:1030E0008EFE8020ADF8000069461848FDF70BFC05
:1030F000032002900420ADF8000010208DF802009B
:1031000069461248FDF7FFFB1FBD1CB56846FDF779
:10311000FEFD20208DF8060001208DF8050004201A
:103120008DF8070000208DF804006946FDF7F9FDD1
:1031300001210020FDF72AFE1CBD10B5FFF7B4FFEA
:10314000FFF7BCFFFFF7E1FF10BD000000080140E2
:1031500010B501214807FEF78DF801210420FEF784
:10316000F1F910BD1FB56846FDF7BFFC03200290C2
:103170001020ADF8000000208DF8040069461448C6
:10318000FDF7C1FB1FBD1FB5044600200390029050
:103190003C200090002001906846FDF7D6F9012000
:1031A000FDF7EEF96420FFF7E6FD21460020FDF76C
:1031B00042FA0120FDF702FA1FBD10B50446FFF7E1
:1031C000C7FFFFF7CFFF2046FFF7DDFF10BD000070
:1031D0000008014010B501210D20FEF7B3F90121CF
:1031E000C802FEF7AFF910BD1FB500200090019096
:1031F000029003906846FDF778FC10208DF80200DD
:10320000022002904FF47060ADF80000022003909D
:1032100069468148FDF777FB4FF46040ADF8000048
:1032200069467E48FDF76FFB6846FDF75EFC10209F
:103230008DF8020005200390022002908DF8040012
:10324000C002ADF8000069467448FDF75CFB1FBD85
:1032500000B58FB041F21750714908807148FEF7F0
:1032600003FA0BA8FEF71AFE0020ADF82C00ADF80B
:103270002E006B480088ADF830000020ADF8320019
:103280008DF834000BA96748FEF75CFA07A8FEF733
:1032900014FE6020ADF81C000120ADF81E000420D3
:1032A000ADF8200040F68B20ADF822000020ADF8EC
:1032B0002400ADF82600ADF82800ADF82A0007A9D3
:1032C0005848FEF7D3FA07A95648FEF704FB07A9AA
:1032D0005448FEF73FFB6020ADF81C000120ADF81C
:1032E0001E0040F68B20ADF8220007A94D48FEF7DE
:1032F0006CFB4FF40060ADF804004010ADF8060020
:103300008000ADF80C000020ADF80A00ADF8100008
:103310004FF40050ADF80E000020ADF808008DF815
:1033200014008DF812008DF8130001A93D48FEF736
:103330008CFD80213B48FFF74FF90122802139485D
:10334000FEF7FEFD18208DF8180001208DF81B00F7
:1033500003208DF8190000208DF81A0006A8FDF74B
:1033600080F801212F48FEF7D1FD01212D48FEF7FD
:10337000D8FD0FB000BD70B504460D4605B10CB9BF
:1033800000BFFEE7284805604460FFF723FFFFF712
:103390002BFFFFF75DFF70BD224934310880091D06
:1033A0000880091D088008B940F68C20C1101D4A0C
:1033B0004032118070471B492031096888B24FF6AE
:1033C000FE7108404FF6EF7108404FF6FF6108406C
:1033D0004FF6FB7108404FF6BF7108404FF6FF31C2
:1033E000084010492031086070470E4920310968B3
:1033F00088B240F0010040F0100040F4807040F4CA
:10340000805040F0040040F0400040F480600549E6
:10341000203108607047000000080140000C0140A6
:10342000B8000020002C0140B00000201FB5012191
:103430003C20FEF787F86846FDF757FB10208DF813
:103440000200012002902020ADF8000069460248E9
:10345000FDF759FA1FBD00000010014010B5012111
:103460001020FEF76FF810BD1FB5002000900190EE
:10347000029003906846FDF738FB10208DF802009B
:10348000002002908DF804000E20ADF8000069467F
:103490004B48FDF738FA1FBD0EB500200190029091
:1034A00000900220019000208DF8080010208DF877
:1034B000090000208DF80A0001A8FDF7E6F80420B5
:1034C000019001A8FDF7E1F80820019001A8FDF79F
:1034D000DCF807208DF8000001208DF803000020A3
:1034E0008DF801008DF802006846FCF7BAFF08204D
:1034F0008DF800006846FCF7B4FF09208DF8000045
:103500006846FCF7AEFF0EBD0EB50020019002909C
:1035100000900220019000208DF8080010208DF806
:10352000090000208DF80A0001A8FDF7AEF804207C
:10353000019001A8FDF7A9F80820019001A8FDF766
:10354000A4F807208DF8000000208DF80300032068
:103550008DF801008DF802006846FCF782FF082014
:103560008DF800006846FCF77CFF09208DF800000C
:103570006846FCF776FF0EBD10B50446206818B10A
:10358000606808B1A06808B900BFFEE70D4920686F
:10359000086060684860A0688860FFF75FFFFFF719
:1035A00063FF01210220FDF745FB02210846FDF7DC
:1035B00041FB03210220FDF73DFBFFF7A5FF10BDF6
:1035C00000100140F800002010B501211448FEF75A
:1035D000F2FFC0B101211248FEF7FEFF114800883A
:1035E000401C10490880088800EBD0714910A0EBFE
:1035F000410121B920210C48FDF79DFA03E020216B
:103600000948FDF79CFA10BD10B580210448FEF76B
:10361000D2FF18B180210248FEF7DEFF10BD000086
:10362000002C0140BA0000200010014010B50446F3
:103630004C4801780078401C4A4A10704A4844546B
:1036400010460078401E4849085C0A2808D1082224
:1036500046A1454800F020F910B9FF2046490870FE
:1036600010BD08B50020009040F225514348FFF7F7
:1036700057F968B14148FFF7EAF8C0B200909DF8E9
:103680000000FFF7D3FF012269460020FFF7D3FABD
:1036900040F227713948FFF743F94FF45871374822
:1036A000FFF73EF918B1354800883448808808BDD6
:1036B00008B50020009040F225513148FFF730F95D
:1036C00048B12F48FFF7C3F8C0B200900122694605
:1036D0001046FFF7B0FA40F227712948FFF720F9AA
:1036E0004FF458712648FFF71BF920B12448008891
:1036F0002348001D008808BD08B50020009040F256
:1037000025512048FFF70CF9D8B11E48FFF79FF864
:10371000C0B200909DF800101B4802680068401C71
:10372000194B186019488154012269460220FFF79D
:1037300082FA15480068B0F5806F02D30020124964
:10374000086040F227710F48FFF7EAF84FF458710C
:103750000C48FFF7E5F820B10A4800880948001D29
:10376000008808BDC1000020080500204F564552C2
:10377000464C4F5700000000C000002000500140A0
:103780000054014000480040BC0000200801002017
:1037900010B504460220FCF7DEFF18B10220FCF74A
:1037A000EBFFA04710BD10B504460420FCF7D3FF83
:1037B00018B10420FCF7E0FFA04710BD10B5044687
:1037C0000820FCF7C8FF18B10820FCF7D5FFA04778
:1037D00010BD00004FF44070FCF73EFEFFF792FA78
:1037E0001B4A4FF4E1310020FFF77EF9194A4FF4EC
:1037F000E1310120FFF778F9174A4FF4E131022057
:10380000FFF772F9FFF712FEFFF70CFBFFF786FBDD
:103810004FF49670FFF7D1FCFFF78FFC0F4910486B
:10382000FFF7A9FD0F48FFF7A7FE00210846FFF7A5
:1038300035FB00210120FFF731FB00210220FFF7BB
:103840002DFB03E0FFF783FB00F00EF8FAE7000022
:1038500063360008B1360008F9360008C93500089B
:1038600009360008C400002010B50648007840B1B1
:103870000020FFF7A2FC00200249087002A000F01F
:103880002DF810BDC00000204F564552464C4F57F2
:1038900020546573740D0A0030B5054600200346B8
:1038A00000E05B1C934205D2EC5CC85C201A01D19D
:1038B000002CF6D130BD0000064C074D06E0E06854
:1038C00040F0010394E8070098471034AC42F6D367
:1038D000FCF73EFCB4390008D4390008014A02491B
:1038E00000F013B8C72C0008D000002002E008C880
:1038F000121F08C1002AFAD170477047002001E06A
:1039000001C1121F002AFBD170472DE9F041164674
:103910000F460446002503E03946B047641C6D1C81
:1039200020780028F8D12846BDE8F081000000008A
:10393000000000000102030406070809A086010038
:10394000400D0300801A060000350C0040420F00B5
:1039500080841E0000093D000000000001020304F5
:10396000010203040607080901020406080A0C10F4
:10397000202020202020202001000200040006003A
:1039800008000A000C001000200040008000000128
:103990000001000100010001A0860100400D0300AC
:1039A000801A060000350C0040420F0080841E0083
:1039B00000093D00D439000800000020D4000000B8
:1039C000EC380008A83A0008D40000205419000080
:1039D000FC38000800F36F06000000000000000043
:1039E0000010014000800000010000000100000004
:1039F0000F00000001000000001001400040000026
:103A000001000000010000000F00000002000000A3
:103A10000010014000200000010000000100000033
:103A20000F00000003000000000000000000000084
:103A30000000000000000000000000000000000086
:103A400000100140400000000200000000000000E3
:103A50000F00000001000000001001408000000085
:103A600002000000000000000F0000000200000043
:103A70000000000000000000000000000000000046
:103A80000000000000000000000000000000000036
:103A9000000000000000000091370008A737000870
:083AA000BD3700080000000022
:0400000508000149A5
:00000001FF
