:020000040800F2
:10000000E019002061010008DD1C0008DF1C000869
:10001000E31C0008E71C0008EB1C000800000000BF
:10002000000000000000000000000000EF1C0008BD
:10003000F11C00080000000077010008F31C000814
:100040007B0100087B0100087B0100087B010008A0
:100050007B0100087B0100087B010008271D0008C8
:10006000291D00082B1D00087B0100087B010008EA
:100070007B0100087B0100087B0100087B01000870
:100080007B0100087B0100087B0100081F1D0008A0
:100090007B0100087B0100087B0100087B01000850
:1000A000211D0008231D00087B0100087B010008BA
:1000B0007B0100087B0100087B0100087B01000830
:1000C0007B0100087B0100087B0100087B01000820
:1000D0007B0100087B0100087B010008011D00086E
:1000E0007B0100087B0100087B0100087B01000800
:1000F000251D00087B0100087B0100080B1D00087E
:10010000151D00087B0100087B0100087B01000829
:100110007B0100087B010008FF1C00087B01000830
:100120007B0100087B0100087B0100080000000043
:100130007B0100087B0100087B0100087B010008AF
:100140007B0100087B010008DFF810D002F06EF898
:1001500000480047F5210008AFF30080E0190020B7
:100160000648804706480047FEE7FEE7FEE7FEE751
:10017000FEE7FEE7FEE7FEE7FEE7FEE78702000890
:100180004901000830B50020002100230022A14CC5
:10019000246844F480349F4D2C6000BF9D4C24683B
:1001A000C4F340425B1C12B9B3F5005FF6D1994C21
:1001B0002468C4F340421AB9974C984D2C6030BD66
:1001C000944CE46944F08054924DEC61944C246862
:1001D00004F4C064B4F5806F05D1914C246844F4F4
:1001E000C0648F4D2C608F4C246824F003048D4D27
:1001F0002C602C46246844F003042C60854C646811
:10020000844D6C602C46646844F400546C602C4649
:10021000646844F4A0646C602C466468824D2C4091
:100220007C4D6C602C46246C24F003042C642C461A
:10023000606840F48030216C40F4003000BF7B4C9B
:1002400020432C4660602164246844F080742C6054
:1002500000BF704C246804F00074002CF9D06D4C81
:10026000646824F003046B4D6C602C46646844F0B1
:1002700003046C6000BF674C646804F00C040C2C31
:10028000F9D100BF9BE710B56948006840F47000E1
:10029000674908605F48406A40F004005D49486271
:1002A00008464068634908405A4948600846006863
:1002B00061490840574908600846006820F48020DA
:1002C0000860084640685D490840524948604FF45C
:1002D000E040C86240100863002048630864584842
:1002E00088600846C06940F08050C8610846C0690F
:1002F00020F08050C8614B48006840F090004949A8
:1003000008600846006800F4807020B10846006864
:1003100020F400700860FFF735FF4FF0006044499B
:100320008039086010BD70B5002100200023002432
:100330000022384D6D6805F00C01364D6D6AC5F32D
:10034000021231B104290AD008290CD00C294DD150
:100350000DE03C4D55F82250304E35604CE03A4DA2
:100360002E4E356048E0394D2C4E356044E0294D25
:100370006D68374E05EA0600264D6D6805F480333A
:10038000244D2D6C05F0020400F000651DB9022516
:1003900005EB904004E04FF4F875C5EB9045681C00
:1003A00073B91C4D2D6C05F0020525B1274D454351
:1003B0001A4E356012E0244D4543184E35600DE06D
:1003C000144D6D6805F4003525B1134D4543134EAA
:1003D000356003E01D4D4543104E3560022C04D1BD
:1003E0000E4D2D686D080D4E356005E0154D55F824
:1003F00022500A4E356000BF00BF064D6D68C5F340
:100400000315144E715D054D2D68CD40034E3560CA
:1004100070BD00000010024000093D0000000020F7
:100420000070004000200240FFFFC0F700002808D5
:1004300088ED00E000C0FFF8FFFFF6FEFFFF0007B9
:100440000080BF04B02200080024F40000127A00EB
:1004500000003C08A022000831490143314A1160E4
:10046000704770B5002100230F22C47804B32D4CCF
:10047000246804F4E064C4F5E064210AC1F10403D3
:10048000CA40447804FA03F18478144021430901F6
:10049000254C0678A155047804F01F050124AC40D2
:1004A00005786D11AD0005F1E025C5F8004109E0C2
:1004B000047804F01F050124AC401C4D0678761129
:1004C00045F8264070BD1A4A0A400243154B1B1FCF
:1004D0001A60704739B1134A121D12680243114B5A
:1004E0001B1D1A6006E00F4A121D126882430D4B55
:1004F0001B1D1A607047042808D14FF0E0210969DC
:1005000041F004014FF0E022116107E04FF0E021DB
:10051000096921F004014FF0E022116170470000E9
:100520000000FA050CED00E000E400E080E100E0EE
:1005300080FFFF1F10B50121480700F092FF002146
:100540004FF0005000F08DFF10BD10B500210022CB
:10055000454B196840F6FE739943D0E900342343B4
:1005600084682343C46843EA040211433E4B196084
:1005700010BD00210160416081600221C1607047AF
:1005800030B13949096841F00101374A116005E08D
:100590003549096821F00101334A1160704730B1D3
:1005A0003149096841F480512F4A116005E02E4914
:1005B000096821F480512C4A1160704740B12A49E2
:1005C000091D096841F00101274A121D116007E069
:1005D0002549091D096821F00101234A121D1160F6
:1005E000704740B12049091D096841F001011E4AC8
:1005F000121D116007E01C49091D096821F0010165
:10060000194A121D1160704708B500220092164A5F
:1006100012680092009A22F0C002009219B1009A6A
:100620000243009203E0009A22F0C00200920E4BB7
:10063000009A1A6008BD08B5002200920A4A00928A
:1006400000F10802009B1A440092009A116008BD54
:1006500008B5002000900448009000982C300090CD
:100660000098006880B208BD007400402DE9F04198
:1006700004460025002600274FF6FF78FE488442F6
:1006800008D10121042000F0DFFE0021042000F049
:10069000DBFE25E0F948844208D10121082000F062
:1006A000D3FE0021082000F0CFFE19E0F448844278
:1006B00008D10121102000F0C7FE0021102000F019
:1006C000C3FE0DE0EF48844208D10121202000F054
:1006D000BBFE0021202000F0B7FE01E0BDE8F08164
:1006E00069E00120A84000EA0806002E62D0E64832
:1006F000A90850F82170A807010F0F208840074073
:10070000DD48844201D100200AE0DC48844201D166
:10071000012005E0DA48844201D1022000E00320F4
:10072000A907090F8840B84221D1D8480068B043D2
:10073000D6490860081D0068B043091D0860081DFF
:100740000068B043091D0860081D0068B043091D1A
:100750000860A807010F0F2000FA01F7CA48A9088E
:1007600050F82100B843C849AA0841F8220020687F
:100770006A00032191408843206005F0080038B1E9
:10078000606A6907CA0E0F2191400843606206E063
:10079000206A6907CA0E0F219140084320626168F0
:1007A0000120A84081436160E0686A000321914014
:1007B0008843E0606D1C28FA05F0002891D100BF45
:1007C0008CE710B50121084600F03EFE0021012013
:1007D00000F03AFE10BDF0B50346002500200024CD
:1007E00000220026E3E00F884FF0010C0CFA02FC17
:1007F00007EA0C06002E6FD055008F68022F07D035
:100800008F68122F04D08F6817B18F68032F25D1FE
:1008100002F008078FB1586A57074FEAD76C0F27C5
:1008200007FA0CF7B8434FEA427C4FEADC6CCF681A
:1008300007FA0CF73843586210E0186A57074FEA76
:10084000D76C0F2707FA0CF7B8434FEA427C4FEA00
:10085000DC6CCF6807FA0CF7384318621C680F7A13
:1008600007F00F000327AF40BC4300FA05F73C43F5
:100870001C60DC680F7907F003000327AF40BC431E
:1008800000FA05F73C43DC600F7A07F003076FB10D
:100890008F68032F0AD0DC6A8F7807F003000327E4
:1008A000AF40BC4300FA05F73C43DC62986801277F
:1008B0009740B843CF7807F00107974038439860D6
:1008C0000F79022F09D19F6A4FF0010C0CFA02FC3C
:1008D00047EA0C079F620BE068E00F79012F07D110
:1008E0009F694FF0010C0CFA02FC47EA0C079F616C
:1008F0008F68012F08D08F68022F05D08F68112FC5
:1009000002D08F68122F09D1586801279740B84349
:100910000F7AC7F300179740384358608F6807F085
:100920008057002F42D0594F386801279740B8436D
:100930008F6807F48037B7F5803F02D101279740D1
:100940003843524F38603F1D386801279740B843FD
:100950008F6807F40037B7F5003F02D101279740B1
:1009600038434A4F3F1D38603F1D38680127974084
:10097000B8438F6807F48017B7F5801F02D10127AD
:1009800097403843414F083738603F1D386801278A
:100990009740B8438F6807F40017B7F5001F02D1DE
:1009A000012797403843394F0C373860521C0F8865
:1009B0001741002F7FF417AFF0BD4FF6FF71018094
:1009C0000021C17081600F21C1600021017181701F
:1009D00070470246002013690B400BB1012000E074
:1009E000002070470146086980B270470246002027
:1009F00053690B400BB1012000E000207047014615
:100A0000486980B270478161704781617047816237
:100A100070470AB1816100E08162704741617047AF
:100A20004FF480320A43C261C161C261C269C269C6
:100A30007047F0B503461546002200200BB90E4E54
:100A400008E0012B01D10D4E04E0022B01D10C4E28
:100A500000E00C4E344601F00806CEB101F007026A
:100A6000606A97000F26BE40B043960005FA06F66E
:100A70003043606218E0000000080140000C0140B3
:100A80000010014000140140040001400004014036
:100A900001F00702206A97000F26BE40B04396007F
:100AA00005FA06F630432062F0BD70B5024600201C
:100AB00000240AB93E4D08E0012A01D13D4D04E071
:100AC000022A01D13C4D00E03C4D2B4601F00805C7
:100AD00055B101F00704586AA6000F25B540A84398
:100AE00040F00300586209E001F00704186AA6000C
:100AF0000F25B540A84340F00300186270BD30498F
:100B0000C861704730B502462E4B8C1053F8243024
:100B10008C07250F0324AC40A3432A4C8D1044F8C6
:100B2000253023468C1053F824308C07240F02FA0A
:100B300004F41C43234B8D1043F8254030BD0A4676
:100B40000021204B1B1F196801238340994302FA9F
:100B500000F319431B4B1B1F19607047024600200E
:100B6000092A11D1174B1B1F186820F40070112996
:100B700002D140F4007003E020F0F00040EA0110E0
:100B8000104B1B1F186011E0082A0FD10D4B1B1FC3
:100B9000186820F48070102902D140F4807002E0BF
:100BA00020F00F000843074B1B1F18607047000020
:100BB00000080140000C01400010014000140140F9
:100BC000000020420400014010B50121C80700F0D8
:100BD00048FC00214FF0004000F043FC10BD002114
:100BE0000160817101214171002101710421C171F4
:100BF000704718B5514B03EB80021368009304282B
:100C000005D1009B23F080730C6823430093009B65
:100C100023F038038C79234300934B79012B04D1C3
:100C2000009B43F40043009303E0009B23F4004344
:100C300000930B79012B04D1009B43F48033009384
:100C400003E0009B23F480330093009B23F0060312
:100C5000CC7923430093009B136018BD0246374BA9
:100C600003EB820021B1036843F00103036003E05A
:100C7000036823F001030360704708B52F4B03EBB3
:100C8000800213680093009B23F038030B4300930A
:100C9000009B136008BD08B5284B03EB8002136866
:100CA0000093009B23F460130B430093009B13609D
:100CB00008BD08B5214B03EB800213680093009B2D
:100CC00023F4C0230B430093009B136008BD08B5B9
:100CD0001A4B03EB800213680093009B23F4E0633C
:100CE0000B430093009B136008BD08B5134B03EB47
:100CF000800213680093009B23F0C0030B43009312
:100D0000009B136008BD01460C4800EB810210688F
:100D1000C0F3803070470246084B03EB820021B1DC
:100D2000036843F40063036003E0036823F4006393
:100D300003607047014908627047000000200040CE
:100D4000F848406A40F00400F649486208464068A6
:100D5000F5490840F349486008460068F3490840EF
:100D6000F04908600846006820F4802008600846C2
:100D70004068EF490840EB4948604FF4E040C862E2
:100D800040100863002048630864EA4888607047A0
:100D9000E449096821F48031E24A1160114609688A
:100DA00021F480211160B0F5803F03D0B0F5802F91
:100DB0000ED106E0DB49096841F48031D94A11605F
:100DC00007E0D849096841F4A021D64A116000E043
:100DD00000BF00BF704710B501460022002300206D
:100DE0004A11012A02D1CF4C236806E0022A02D11F
:100DF000CC4C236A01E0CB4C636A01F01F02012452
:100E000094401C400CB1012000E0002010BD38B51A
:100E1000002000900024002500BF3120FFF7DBFFF9
:100E200005460098401C00900098B0F5005F01D086
:100E3000002DF2D03120FFF7CEFF08B1012400E0F1
:100E40000024204638BDB749096821F00101B54AA0
:100E50001160012805D11146096841F001011160B6
:100E600000E000BF00BF704738B5002000900024AC
:100E7000002500BF2120FFF7AEFF05460098401C6B
:100E800000900098B0F5A06F01D0002DF2D0212085
:100E9000FFF7A1FF08B1012400E00024204638BD7F
:100EA000014600209F4A106820F07C0040EA810043
:100EB00010607047A049086070479A4A526A22F051
:100EC0007002984B5A621A46526A0A435A6238B103
:100ED00004280CD11A46526A42F004025A6207E012
:100EE000904A526A22F004028E4B5A6200E000BF20
:100EF00000BF704738B5002000900024002500BFD7
:100F00006320FFF768FF05460098401C009000989A
:100F1000B0F5A06F01D0002DF2D06320FFF75BFF8A
:100F200008B1012400E00024204638BD014600201D
:100F30007C4A506A20F4FF0040EAC130506270479A
:100F40007E490860704730B50B46144600210022E8
:100F5000744D69682A6C7A4D294022F0030208B169
:100F6000012804D1194340EA04052A4303E040EA7A
:100F70000305294322436B4D69602A6430BD6E49E5
:100F80000866704701460020664A506820F003005A
:100F90000843506070476348406800F00C00704799
:100FA000014600205F4A506820F0F000084350607E
:100FB0007047014600205B4A506820F4E060084317
:100FC0005060704701460020564A506820F4605037
:100FD00040EAC1005060704731B1524A926842EA1B
:100FE0000022504B9A6005E04E4A926822EA0022A5
:100FF0004C4B9A6070475049D831086041084E4ABE
:10100000C2F8DC10704701460020464AD06A20F042
:1010100000500843D062704701460020414AD06A20
:1010200020F0F8500843D0627047024600203D4B44
:10103000D86A20F4003020F4F83010430843D86216
:10104000704702460020374BD86A20F4F87009B187
:10105000104302E0104320F48070324BD862704796
:10106000014600202F4AD06A20F00F000843D062CA
:101070007047024600202B4B186B20F4003020F400
:101080007840104308431863704730B12549096B15
:1010900041F48021234A116305E02249096B21F4C0
:1010A0008021204A1163704710B5024600201D4B75
:1010B000186B20F400701043186329B11B6B43F0C8
:1010C0008003184C236305E0164B1B6B23F0800351
:1010D000144C236310BD1349096B21F48071114A2C
:1010E00011631146096B01431163704729B10D4A21
:1010F000526B02430B4B5A6304E00A4A526B824321
:10110000084B5A63704731B1064A526B42EA0012EB
:10111000044B5A6305E0034A526B22EA0012014B6A
:101120005A6370470010024000C0FFF8FEFFF6FE51
:10113000FFFF00F70080BF040000424288044242E3
:10114000FFFFC0F729B1EF4AD2690243ED4BDA61E4
:1011500004E0EC4AD2698243EA4BDA61704710B589
:10116000044601210807FFF7EDFFE748006840F457
:101170008070E5490860E348406B20F00700E149D2
:1011800048630846406B2043486310BDDD48406B10
:1011900000F007007047DB49496B21F01801D94A7C
:1011A00051631146496B014351637047D548406B09
:1011B00000F01800704729B1D24A526C0243D14B5B
:1011C0005A6404E0CF4A526C8243CE4B5A64704753
:1011D00029B1CC4A526C0243CA4B5A6404E0C94A52
:1011E000526C8243C74B5A647047C649496C0143ED
:1011F000C44A516470470021C44A11686FF3080162
:10120000B0F5007F02DB40F2FF1001E0C0F3080000
:101210000143BE4A11607047F0B505460E460027EF
:1012200001210807FFF78EFFB748006840F480707F
:10123000B5490860B348046A24F00D0465B1012D76
:1012400002D0042D18D112E044F00104AD4804622C
:101250003046FFF7D0FF10E000BFAA480462002725
:1012600000E07F1C40F2FF708742FAD305E044F0B3
:101270000404A448046200E000BF00BFF0BDA4491C
:10128000086070479F49096A21F440719D4A1162C4
:101290001146096A0143116270479A48006A00F4D6
:1012A000407070479A494439086070479549096A07
:1012B00021F02001934A11621146096A014311622B
:1012C00070479048006A00F020007047F0B5002198
:1012D00000BF00230026002400258A4F7F68DFF826
:1012E00034C207EA0C03874F7F6807F48036854FC6
:1012F0007F6AC7F3021503F000671FB9022707EBE7
:10130000934304E04FF4F877C7EB93477B1C66B92F
:101310007C4F3F6C07F001071FB17F4F03FB07F2C3
:101320000FE07E4F03FB07F20BE0764F7F6807F478
:1013300000371FB17A4F03FB07F202E0764F03FB41
:1013400007F2704F3F6C07F0020707B152086D4F6C
:101350007F6807F00C0131B1042909D008290AD0AF
:101360000C290DD10AE06F4F57F8257007600CE08B
:101370006A4F076009E0684F076006E0026004E01A
:10138000684F57F82570076000BF00BF5D4F7F684A
:1013900007F0F0010909644F7C5C0768E74047608B
:1013A000584F7F6807F4E061090A5F4F7C5C47682B
:1013B000E7408760534F7F6807F46051C90A5A4F6E
:1013C0007C5C4768E740C7604E4FFF6A07F00F013B
:1013D000564F7C5C4768B7FBF4F74761494FFF6A9B
:1013E00007F4F871090901F00F07DFF844C13CF870
:1013F0001740B2FBF4F70761F0BD29B1414A5269C9
:101400000243404B5A6104E03E4A526982433D4BDD
:101410005A61704729B13B4A92690243394B9A613C
:1014200004E0384A92698243364B9A61704729B189
:10143000344A926A0243334B9A6204E0314A926A18
:101440008243304B9A62704729B12E4AD2680243D8
:101450002C4BDA6004E02B4AD2688243294BDA60D5
:10146000704729B1274A12690243264B1A6104E0EA
:10147000244A12698243234B1A6170472449403938
:10148000086070472B49C864704721497439086067
:10149000704700201B49096A01F0100109B10120C1
:1014A00000E00020704701460020164A506820F0F6
:1014B000704008435060704701460020114A506850
:1014C00020F0E06040EA0160506070470D48406ADB
:1014D00040F080700B4948620846406A20F08070F6
:1014E0004862704701460020064A92680A400AB1E5
:1014F000012000E000207047024989680143014A49
:1015000091607047001002400070004008180040D1
:101510008004424200003C0800127A000024F400DB
:1015200000093D000C230008CC220008DC22000842
:10153000EC2200080000424210B50446E54884420F
:1015400009D101218803FFF77FFF00214FF480407C
:10155000FFF77AFF32E0E048844209D101214804D4
:10156000FFF77FFF00214FF40030FFF77AFF25E0FF
:10157000DA48844209D101218804FFF772FF002173
:101580004FF48020FFF76DFF18E0D548844209D161
:1015900001214804FFF758FF00214FF40030FFF706
:1015A00053FF0BE0CF48844208D101218804FFF7A4
:1015B0004BFF00214FF48020FFF746FF10BD2DE9BF
:1015C000F04786B005460F460024A24600BF00BF84
:1015D0000026B88900B100BF2E462C8A4CF6FF7059
:1015E0000440F88804432C82AC894EF6F310044082
:1015F000B88839890843798908430443AC81AC8AA7
:101600004FF6FF400440B8890443AC826846FFF7B8
:101610005DFEB048864205D0B148864202D0B1484E
:10162000864202D1DDF80CA001E0DDF808A00AEB4B
:10163000CA0000EB0A1039688900B0FBF1F8642099
:10164000B8FBF0F004012009642101FB108932206D
:1016500000EB0910B0FBF1F000F00F0004432C8107
:1016600006B0BDE8F0874FF416510160002181807B
:10167000C18001810C21418100218181704710B519
:1016800002460020108A4FF2FF0318400B884C8856
:1016900023438C882343CC8823431843108210BDF6
:1016A0000021018041808180C180704721B1828901
:1016B00042F40052828104E082894DF6FF731A40A1
:1016C00082817047F0B503460024002600250020E3
:1016D00040F66A17B94200D100BF1846C1F3421460
:1016E00001F01F06012707FA06F5012C01D10C3085
:1016F00004E0022C01D1103000E014301AB1076868
:101700002F43076002E00768AF430760F0BD1AB1DE
:10171000838A0B43838202E0838A8B4383827047F0
:10172000028A4FF6F0731A400282028A0A4302824A
:10173000704782894FF2FF731A40828182890A437F
:101740008281704721B1828942F00202828104E0E5
:1017500082894FF6FD731A4082817047028A4FF6E4
:10176000DF731A400282028A0A430282704721B163
:10177000028A42F48042028204E0028A4BF6FF733E
:101780001A4002827047C1F3080282807047014606
:101790008888C0F308007047818941F00101818188
:1017A0007047028BD2B20283028B42EA012202838B
:1017B0007047028B02F47F420283028B0A4302834A
:1017C000704721B1828A42F02002828204E0828A3C
:1017D0004FF6DF731A408282704721B1828A42F04D
:1017E0001002828204E0828A4FF6EF731A408282EE
:1017F000704721B1828A42F00802828204E0828A24
:101800004FF6F7731A4082827047828A4FF6FB7355
:101810001A408282828A0A438282704721B1828A78
:1018200042F00202828204E0828A4FF6FD731A407F
:101830008282704702460020B1F5007F00D100BFD0
:1018400013880B400BB1012000E00020704701F429
:101850000072B2F5007F00D100BFCA43028070471A
:1018600070B50246002400230025002040F66A16C9
:10187000B14200D100BFC1F3421501F01F030126A0
:1018800006FA03F3012D02D19689334006E0022DBA
:1018900002D1168A334001E0968A33400C120126A9
:1018A00006FA04F41688344013B10CB1012000E0AC
:1018B000002070BD10B50022002340F66A14A1423A
:1018C00000D100BF0A1201249440A3B2DC4304807B
:1018D00010BD0000003801400044004000480040B6
:1018E000005001400054014010B5044624B1012CC1
:1018F0000FD0022C2BD119E001210820FFF78AFD1F
:1019000001210820FFF786FD01214804FFF782FD31
:101910001DE001211020FFF77DFD01212020FFF7B0
:1019200079FD01218804FFF775FD10E001210820F1
:10193000FFF770FD01210820FFF76CFD0121102049
:10194000FFF768FD01218804FFF7FCFB00BF00BF23
:1019500010BD1FB504460020009001900290039036
:101960006846FFF72AF824B1012C1AD0022C59D16D
:101970002FE006200390022002900120ADF8000025
:101980006946A948FEF727FF01208DF804000220D0
:10199000ADF80000062003906946A348FEF71BFF40
:1019A00040E00620039002200290C002ADF8000043
:1019B00069469E48FEF70FFF01208DF804000420C1
:1019C000ADF800000620039069469948FEF703FF32
:1019D00028E000200390022002904002ADF80000B1
:1019E00069469148FEF7F7FE0520039001208DF827
:1019F0000400C002ADF8000069468B48FEF7EBFE1C
:101A000001208DF804000002ADF8000001200290D2
:101A100069468648FEF7DFFE4FF480718348FEF783
:101A2000F2FF00BF00BF1FBD70B586B006460D4671
:101A3000144600200290039004900590019002A8A3
:101A4000FFF711FE3046FFF74FFF3046FFF781FFEB
:101A50000CB900BFFEE726B1012E2FD0022E2CD1EB
:101A600059E002950020ADF80C00ADF80E00ADF87D
:101A700010000C20ADF812000020ADF814002F204B
:101A80008DF8040001208DF8070000208DF8050076
:101A90008DF8060001A8FEF7E4FC012240F2255172
:101AA0006448FFF70FFE6448046002A96148FFF72D
:101AB00086FD01215F48FFF7F9FD59E002950020FE
:101AC000ADF80C00ADF80E00ADF810000C20ADF82C
:101AD00012000020ADF8140030208DF80400012021
:101AE0008DF8070000208DF805008DF8060001A88C
:101AF000FEF7B7FC012240F225515048FFF7E2FD06
:101B00004D48446002A94D48FFF759FD01214B485B
:101B1000FFF7CCFD2CE002950020ADF80C00ADF8ED
:101B20000E00ADF810000C20ADF812000020ADF84A
:101B3000140027208DF8040001208DF807000020F4
:101B40008DF805008DF8060001A8FEF78AFC012239
:101B500040F225513A48FFF7B5FD3748846002A9A5
:101B60003748FFF72CFD01213548FFF79FFD00BFE7
:101B700000BF06B070BD2DE9F04104460E46174681
:101B80000025A84624B1012C05D0022C11D105E076
:101B9000DFF8A0800DE0DFF8A4800AE0DFF8A08085
:101BA0004FF480712148FEF732FF012000F083F8E6
:101BB00000BF00BFB8F1000F01D100BFFEE7002554
:101BC0000BE0715D4046FFF7DEFD00BF802140461F
:101BD000FFF730FE0028F9D06D1CBD42F1D324B1CF
:101BE000012C03D0022C0BD101E009E008E0012018
:101BF00000F061F84FF480710C48FEF704FF00BF5D
:101C000000BFBDE8F08170B504460D46E1B2094859
:101C1000FFF7B9FD00BF80210648FFF70BFE002843
:101C2000F9D0204670BD0000000C014000100140BA
:101C30000014014000500140B80000200054014051
:101C40000048004030B5214800684FF47A72B0FB7C
:101C5000F2F1481EB0F1807F01D301201BE0481E45
:101C60004FF0E022506150170F22002804DB1307C9
:101C70001C0E174B1C5406E013071D0E154B00F0ED
:101C80000F04241F1D5500BF00204FF0E02290617B
:101C900007201061002008B100BFFEE730BD4FF003
:101CA000E020006920F001004FF0E021086170475A
:101CB0000948006870470021074A1268111800BFE0
:101CC000054A12688A42FBD97047000000000020D4
:101CD00000E400E018ED00E004000020704700BFC1
:101CE000FEE700BFFEE700BFFEE700BFFEE770476C
:101CF00070470E480068401C0C49086070477047E8
:101D000010B50B498868804710BD10B508490868B0
:101D1000804710BD10B506494868804710BD704720
:101D20007047704770477047704770470400002045
:101D3000B800002008B50020009040F225513C4832
:101D4000FFF78EFD48B13A48FFF721FDC0B2009081
:101D5000012269460020FFF70EFF40F22771344848
:101D6000FFF77EFD4FF458713148FFF779FD18B148
:101D70002F4800882E48808808BD08B500200090B4
:101D800040F225512B48FFF76BFD48B12948FFF77A
:101D9000FEFCC0B20090012269461046FFF7EBFE40
:101DA00040F227712348FFF75BFD4FF4587121483B
:101DB000FFF756FD20B11F4800881E48001D00880F
:101DC00008BD08B50020009040F225511A48FFF7E1
:101DD00047FDD8B11848FFF7DAFCC0B200909DF873
:101DE0000010164802680068401C144B1860144824
:101DF0008154012269460220FFF7BDFE0F480068AA
:101E0000B0F5806F02D300200C49086040F22771C2
:101E10000948FFF725FD4FF458710748FFF720FDEB
:101E200020B1054800880448001D008808BD000056
:101E300000500140005401400048004008000020CC
:101E4000C400002010B5002400BF0FE004EB4402E2
:101E5000364B03EBC20202F1080104EB440203EB30
:101E6000C2025068FEF7B7FC601CC4B2032CEDDB65
:101E700010BD044621E004EB44022C4B03EBC202EC
:101E8000118904EB440203EBC2025068FEF7BBFD6C
:101E90004FF4FA70FFF70FFF04EB4402234B03EB00
:101EA000C202118904EB440203EBC2025068FEF740
:101EB000AEFD4FF4FA70FFF7FEFEDCE770B50646A4
:101EC0000D46002400BF2DE004EB4400174911F833
:101ED0003000B04224D16DB904EB44020B4603EB51
:101EE000C202118904EB440203EBC2025068FEF700
:101EF0008AFD14E0012D0DD104EB44020B4B03EBE2
:101F0000C202118904EB440203EBC2025068FEF7DF
:101F10007EFD04E0022D02D13046FFF7AAFF03E068
:101F2000601CC4B2032CCFDB00BF70BD0C000020CE
:101F300010B501211020FFF76DFA10BD10B5FFF7A5
:101F4000F7FF002400BF0FE004EB4402454B03EB16
:101F5000C20202F1080104EB440203EBC202506822
:101F6000FEF739FC601CC4B2022CEDDB10BD10B5CD
:101F700000243C4A11895068FEF72BFD0446012CD1
:101F800009D13948007930B9012037490871FFF784
:101F90008FFE354908603448007901281AD1FFF7CF
:101FA00087FE31490968401A0A2813D92D4A118938
:101FB0005068FEF70EFD0446012C08D12A494871ED
:101FC00008468068401C886028A000F041F9022083
:101FD0002549087154B924480079022806D129A05E
:101FE00000F036F900202049087148711D4A118C13
:101FF000D069FEF7EEFC0446012C09D12748007990
:1020000030B9012025490871FFF752FE23490860C5
:1020100022480079012817D1FFF74AFE1F490968B5
:10202000401A0A2810D90F4A118CD069FEF7D1FC4A
:102030000446012C05D100201849487118A000F071
:1020400007F90220154908715CB914480079022883
:1020500007D118A000F0FCF80120104948710020B9
:10206000087110BD6C000020C4040020535441527C
:10207000542F53544F50204B45592D2D3E444F570C
:102080004E0D0A0053544152542F53544F50204B7D
:1020900045592D2D3E55500D0A000000D00400205A
:1020A00043432F434357204B45592D2D3E444F5713
:1020B0004E0D0A0043432F434357204B45592D2DC6
:1020C0003E55500D0A00000010B50121C807FFF76A
:1020D00039F801210520FFF79DF910BD1FB500203B
:1020E00000900190029003906846FEF766FCC021C4
:1020F0000020FEF7FAFD0320029001020020FEF707
:10210000E6FD8020ADF8000069461848FEF763FB45
:10211000032002900420ADF8000010208DF802008A
:1021200069461248FEF757FB1FBD1CB56846FEF70F
:1021300056FD20208DF8060001208DF805000420B2
:102140008DF8070000208DF804006946FEF751FD68
:1021500001210020FEF782FD1CBD10B5FFF7B4FF82
:10216000FFF7BCFFFFF7E1FF10BD000000080140D2
:1021700010B501214807FEF7E5FF01210420FFF714
:1021800049F910BD1FB56846FEF717FC0320029001
:102190001020ADF8000000208DF8040069461448B6
:1021A000FEF719FB1FBD1FB50446002003900290E7
:1021B0003C200090002001906846FEF7C6F90120FF
:1021C000FEF7DEF96420FFF776FD21460020FEF7DA
:1021D00032FA0120FEF7F2F91FBD10B50446FFF7F1
:1021E000C7FFFFF7CFFF2046FFF7DDFF10BD000060
:1021F000000801404FF44070FEF72EF9FFF722FD72
:10220000094A4FF4E1310020FFF70EFCFFF71AFEF8
:10221000FFF794FEFFF7A1FF4FF47A60FFF7DDFFB1
:1022200001E0FFF7A4FEFCE7351D0008064C074D52
:1022300006E0E06840F0010394E807009847103496
:10224000AC42F6D3FDF784FF28230008482300089A
:10225000014A024900F013B8071C0008B40000202E
:1022600002E008C8121F08C1002AFAD1704770475F
:10227000002001E001C1121F002AFBD170472DE9A7
:10228000F04116460F460446002503E03946B047A4
:10229000641C6D1C20780028F8D12846BDE8F08128
:1022A0000000000000000000010203040607080906
:1022B000A0860100400D0300801A060000350C00C6
:1022C00040420F0080841E0000093D000000000015
:1022D00001020304010203040607080901020406BF
:1022E000080A0C10202020202020202001000200BD
:1022F0000400060008000A000C0010002000400046
:10230000800000010001000100010001A086010021
:10231000400D0300801A060000350C0040420F00FB
:1023200080841E0000093D004823000800000020B2
:10233000B80000006022000800240008B800002057
:10234000281900007022000800F36F06000000004A
:1023500000000000000000000010014000800000AC
:1023600001000000010000000F000000010000005B
:1023700000100140004000000100000001000000CA
:102380000F000000020000000010014000200000CB
:1023900001000000010000000F0000000300000029
:1023A000000000000000000000000000000000002D
:1023B000000000000000000000100140400000008C
:1023C00002000000000000000F00000001000000FB
:1023D000001001408000000002000000000000002A
:1023E0000F000000020000000000000000000000DC
:1023F00000000000000000000000000000000000DD
:0400000508000149A5
:00000001FF
