:020000040800F2
:100000000815002061010008CD050008CF05000893
:10001000D3050008D7050008DB0500080000000034
:10002000000000000000000000000000DF050008E4
:10003000E10500080000000077010008E305000862
:100040007B0100087B0100087B0100087B010008A0
:100050007B0100087B0100087B010008FF05000808
:1000600001060008030600087B0100087B01000868
:100070007B0100087B0100087B0100087B01000870
:100080007B0100087B0100087B010008F7050008E0
:100090007B0100087B0100087B0100087B01000850
:1000A000F9050008FB0500087B0100087B0100083A
:1000B0007B0100087B0100087B0100087B01000830
:1000C0007B0100087B0100087B0100087B01000820
:1000D0007B0100087B0100087B010008F105000896
:1000E0007B0100087B0100087B0100087B01000800
:1000F000FD0500087B0100087B010008F3050008EE
:10010000F50500087B0100087B0100087B01000861
:100110007B0100087B010008EF0500087B01000857
:100120007B0100087B0100087B0100080000000043
:100130007B0100087B0100087B0100087B010008AF
:100140007B0100087B010008DFF810D000F064FAA2
:100150000048004709060008AFF30080081500209A
:100160000648804706480047FEE7FEE7FEE7FEE751
:10017000FEE7FEE7FEE7FEE7FEE7FEE78702000890
:100180004901000830B50020002100230022A14CC5
:10019000246844F480349F4D2C6000BF9D4C24683B
:1001A000C4F340425B1C12B9B3F5005FF6D1994C21
:1001B0002468C4F340421AB9974C984D2C6030BD66
:1001C000944CE46944F08054924DEC61944C246862
:1001D00004F4C064B4F5806F05D1914C246844F4F4
:1001E000C0648F4D2C608F4C246824F003048D4D27
:1001F0002C602C46246844F003042C60854C646811
:10020000844D6C602C46646844F400546C602C4649
:10021000646844F4A0646C602C466468824D2C4091
:100220007C4D6C602C46246C24F003042C642C461A
:10023000606840F48030216C40F4003000BF7B4C9B
:1002400020432C4660602164246844F080742C6054
:1002500000BF704C246804F00074002CF9D06D4C81
:10026000646824F003046B4D6C602C46646844F0B1
:1002700003046C6000BF674C646804F00C040C2C31
:10028000F9D100BF9BE710B56948006840F47000E1
:10029000674908605F48406A40F004005D49486271
:1002A00008464068634908405A4948600846006863
:1002B00061490840574908600846006820F48020DA
:1002C0000860084640685D490840524948604FF45C
:1002D000E040C86240100863002048630864584842
:1002E00088600846C06940F08050C8610846C0690F
:1002F00020F08050C8614B48006840F090004949A8
:1003000008600846006800F4807020B10846006864
:1003100020F400700860FFF735FF4FF0006044499B
:100320008039086010BD70B5002100200023002432
:100330000022384D6D6805F00C01364D6D6AC5F32D
:10034000021231B104290AD008290CD00C294DD150
:100350000DE03C4D55F82250304E35604CE03A4DA2
:100360002E4E356048E0394D2C4E356044E0294D25
:100370006D68374E05EA0600264D6D6805F480333A
:10038000244D2D6C05F0020400F000651DB9022516
:1003900005EB904004E04FF4F875C5EB9045681C00
:1003A00073B91C4D2D6C05F0020525B1274D454351
:1003B0001A4E356012E0244D4543184E35600DE06D
:1003C000144D6D6805F4003525B1134D4543134EAA
:1003D000356003E01D4D4543104E3560022C04D1BD
:1003E0000E4D2D686D080D4E356005E0154D55F824
:1003F00022500A4E356000BF00BF064D6D68C5F340
:100400000315144E715D054D2D68CD40034E3560CA
:1004100070BD00000010024000093D0000000020F7
:100420000070004000200240FFFFC0F700002808D5
:1004300088ED00E000C0FFF8FFFFF6FEFFFF0007B9
:100440000080BF046C0600080024F40000127A004B
:1004500000003C085C06000831490143314A116044
:10046000704770B5002100230F22C47804B32D4CCF
:10047000246804F4E064C4F5E064210AC1F10403D3
:10048000CA40447804FA03F18478144021430901F6
:10049000254C0678A155047804F01F050124AC40D2
:1004A00005786D11AD0005F1E025C5F8004109E0C2
:1004B000047804F01F050124AC401C4D0678761129
:1004C00045F8264070BD1A4A0A400243154B1B1FCF
:1004D0001A60704739B1134A121D12680243114B5A
:1004E0001B1D1A6006E00F4A121D126882430D4B55
:1004F0001B1D1A607047042808D14FF0E0210969DC
:1005000041F004014FF0E022116107E04FF0E021DB
:10051000096921F004014FF0E022116170470000E9
:100520000000FA050CED00E000E400E080E100E0EE
:1005300080FFFF1F30B5214800684FF47A72B0FB8E
:10054000F2F1481EB0F1807F01D301201BE0481E6C
:100550004FF0E022506150170F22002804DB1307F0
:100560001C0E174B1C5406E013071D0E154B00F014
:100570000F04241F1D5500BF00204FF0E0229061A2
:1005800007201061002008B100BFFEE730BD4FF02A
:10059000E020006920F001004FF0E0210861704781
:1005A0000948006870470021074A1268111800BF07
:1005B000054A12689142FBD97047000000000020F4
:1005C00000E400E018ED00E004000020704700BFE8
:1005D000FEE700BFFEE700BFFEE700BFFEE7704793
:1005E000704708480068401C06490860704770471B
:1005F0007047704770477047704770477047704743
:1006000070477047040000204FF44070FFF724FF4C
:10061000FFF790FF00BFFEE7064C074D06E0E068DD
:1006200040F0010394E8070098471034AC42F6D339
:10063000FFF78EFD88060008A806000802E008C83B
:10064000121F08C1002AFAD170477047002001E04C
:1006500001C1121F002AFBD17047000000000000FA
:10066000000000000102030406070809A08601003B
:10067000400D0300801A060000350C0040420F00B8
:1006800080841E0000093D00A8060008000000202C
:10069000080000003C060008B00600080800002022
:1006A000001500004C06000800F36F060000000073
:0400000508000149A5
:00000001FF
